:020000040000FA
:040000000DEF00F010
:040008005DEF12F0A6
:06001800FF0086EF13F06B
:10160000002D2D2D2D2D2D2D2D2D2D2D2D2D2D2D37
:101610002D2D2D2D2D2D2D2D2D2D2D2D2D2D2D2DFA
:101620002D2D2D2D2D2D2D2D2D2D2D2D2D2D2D2DEA
:101630002D2D2D2D2D2D2D2D2D200D0A00506C65BD
:1016400061736520726566657220746F20696E63D0
:101650006C7564656420726561646D652E6D6420CF
:10166000666F72206D6F726520696E666F726D6154
:1016700074696F6E200D0A00504943313846313687
:1016800051343020437572696F73697479204E61EB
:101690006E6F2044656D6F200D0A0054656D7020DB
:1016A00053656E736F7220526573756C7420256478
:1016B000200D0A0053573020507265737365642102
:0516C000200D0A0000EE
:1016C60020C538F521C539F522C53AF523C53BF5C0
:1016D60024C53CF525C53DF526C53EF527C53FF590
:1016E6003FBE78EF0BF07BEF0BF0010E7CEF0BF0BB
:1016F600000E366E376A36503710D8B485EF0BF0C9
:1017060087EF0BF097EF0BF03F1E3E1E3D1E3C1E73
:101716003B1E3A1E391E386C000E39223A223B22F5
:101726003C223D223E223F22050168BF9DEF0BF081
:101736009FEF0BF0A0EF0BF0699368BFADEF0BF0D6
:10174600685106E16705D8B0ABEF0BF0ADEF0BF0D3
:10175600B3EF0BF0000E336E010E326EB7EF0BF0E7
:1017660067C532F568C533F565C534F566C535F523
:1017760036503710D8A4C2EF0BF0C4EF0BF0CBEF06
:101786000BF069A5C9EF0BF0CBEF0BF0CEEF0BF02A
:101796003406D8A03506000E416E1F0E406E000EB0
:1017A600936F52EF0CF04006D8A04106740E402409
:1017B600D96E050E4120DA6E38C501F539C502F538
:1017C6003AC503F53BC504F53CC505F53DC506F52B
:1017D6003EC507F53FC508F50A0E096E000E0A6EEE
:1017E600000E0B6E000E0C6E000E0D6E000E0E6ED1
:1017F600000E0F6E000E106E94EC0EF001C528F56B
:1018060002C529F503C52AF504C52BF505C52CF532
:1018160006C52DF507C52EF508C52FF528C513F500
:101826002AC514F5A2EC12F01350300FDF6E320603
:10183600D8A033063406D8A0350638C501F539C513
:1018460002F53AC503F53BC504F53CC505F53DC5AE
:1018560006F53EC507F53FC508F50A0E096E000EEA
:101866000A6E000E0B6E000E0C6E000E0D6E000E54
:101876000E6E000E0F6E000E106ED0EC0DF001C550
:1018860038F502C539F503C53AF504C53BF505C576
:101896003CF506C53DF507C53EF508C53FF541BE15
:1018A6005DEF0CF0415008E14004D8A05DEF0CF06C
:1018B6005FEF0CF090EF0CF0385039103A103B10F7
:1018C6003C103D103E103F10D8A46CEF0CF06EEFAC
:1018D6000CF0D6EF0BF033BE7BEF0CF0335006E185
:1018E6003204D8B079EF0CF07BEF0CF0D6EF0BF0AA
:1018F60035BE86EF0CF0355008E13404D8A086EFEB
:101906000CF088EF0CF090EF0CF0050169B38EEF48
:101916000CF090EF0CF0D6EF0BF036503710D8A441
:1019260097EF0CF099EF0CF0A1EF0CF0050169A50B
:101936009FEF0CF0A1EF0CF0C0EF0CF04006D8A022
:10194600410636503710D8A4ABEF0CF0ADEF0CF0D3
:10195600B3EF0CF0000E316E2B0E306EB7EF0CF0BD
:10196600000E316E2D0E306E740E4024D96E050EAB
:101976004120DA6E6100C0F4DFF41EC513F51FC501
:1019860014F5740E4024156E050E4120166E34C5EE
:1019960017F535C518F536EC10F013C51EF514C548
:1019A6001FF51200610010F5D9F4610014F5DAF4A0
:1019B600DEC4F6F4DDC4F7F4F86A0800F550250A2B
:1019C600D8A4E8EF0CF0EAEF0CF0AFEF0DF06100F1
:1019D60010F5D9F4610014F5DAF4DE2A000EDD22E2
:1019E600000E0501666F000E656F65C569F566C573
:1019F6006AF567696869610010F5D9F4610014F544
:101A0600DAF4DEC4F6F4DDC4F7F4F86A0800F5503B
:101A1600640AD8B411EF0DF013EF0DF028EF0DF0B6
:101A2600610010F5D9F4610014F5DAF4DEC4F6F4B9
:101A3600DDC4F7F4F86A0800F550690AD8A426EF61
:101A46000DF028EF0DF072EF0DF0610010F5D9F4EE
:101A5600610014F5DAF4DE2A000EDD22610018F5C5
:101A6600D9F461001CF5DAF461007CF348F5020E46
:101A7600DE2661007CF349F5000EDD22610020F5CB
:101A8600D9F4610024F5DAF4610078F34AF56100CF
:101A960074F34BF5000E4BBEFF0E4C6E4D6E4E6E44
:101AA6004F6E506E516E42C51EF543C51FF54AC5B1
:101AB60020F54BC521F54CC522F54DC523F54EC580
:101AC60024F54FC525F550C526F551C527F563EC18
:101AD6000BF01EC542F51FC543F5CFEF0DF06100B3
:101AE60010F5D9F4610014F5DAF4DEC4F6F4DDC4B9
:101AF600F7F4F86A0800F550250AD8A485EF0DF02A
:101B060087EF0DF0A0EF0DF0610010F5D9F461003C
:101B160014F5DAF4DE2A000EDD22000E046E250E20
:101B2600036E42C505F543C506F599EC10F0000EA7
:101B3600436E010E426ECFEF0DF0610010F5D9F441
:101B4600610014F5DAF4DE2A000EDD22000E436E83
:101B5600000E426ECFEF0DF0610010F5D9F4610072
:101B660014F5DAF4DEC4F6F4DDC4F7F4F86A080016
:101B7600F550036E046A42C505F543C506F599ECB2
:101B860010F0610010F5D9F4610014F5DAF4DE2ADC
:101B9600000EDD229AEF0DF01200000E126E10BE3E
:101BA600D9EF0DF0D7EF0DF0EBEF0DF0101E0F1E75
:101BB6000E1E0D1E0C1E0B1E0A1E096C000E0A229E
:101BC6000B220C220D220E220F221022010E126E63
:101BD60008BEF2EF0DF0F0EF0DF004EF0EF0081E68
:101BE600071E061E051E041E031E021E016C000EA5
:101BF6000222032204220522062207220822010EBF
:101C0600121A21EE13F1070EDE6AE806FDE209500C
:101C16000A100B100C100D100E100F101010D8B467
:101C260017EF0EF019EF0EF06BEF0EF0010E116EBE
:101C360027EF0EF0D89009360A360B360C360D36DD
:101C46000E360F361036112A10AE2CEF0EF02EEF90
:101C56000EF01DEF0EF0D8901336143615361636E4
:101C66001736183619361A360950015C0A500258CA
:101C76000B5003580C5004580D5005580E5006587A
:101C86000F50075810500858D8A04CEF0EF04EEFE2
:101C96000EF05FEF0EF00950015E0A50025A0B502B
:101CA600035A0C50045A0D50055A0E50065A0F503E
:101CB600075A1050085A1380D89010320F320E323D
:101CC6000D320C320B320A320932112E2EEF0EF083
:101CD6001250D8B471EF0EF073EF0EF083EF0EF0E2
:101CE6001A1E191E181E171E161E151E141E136CFC
:101CF600000E1422152216221722182219221A2241
:101D060013C501F514C502F515C503F516C504F589
:101D160017C505F518C506F519C507F51AC508F559
:101D26001200000E126E08BE9DEF0EF09BEF0EF035
:101D3600AFEF0EF0081E071E061E051E041E031E2C
:101D4600021E016C000E0222032204220522062234
:101D560007220822010E126E10BEB6EF0EF0B4EF87
:101D66000EF0C6EF0EF0101E0F1E0E1E0D1E0C1EE0
:101D76000B1E0A1E096C000E0A220B220C220D22D3
:101D86000E220F22102209500A100B100C100D10F3
:101D96000E100F101010D8B4D3EF0EF0D5EF0EF0D2
:101DA6001DEF0FF0010E116EE3EF0EF0D89009361D
:101DB6000A360B360C360D360E360F361036112A0D
:101DC60010AEE8EF0EF0EAEF0EF0D9EF0EF0095084
:101DD600015C0A5002580B5003580C5004580D5021
:101DE60005580E5006580F50075810500858D8A0DE
:101DF600FFEF0EF001EF0FF011EF0FF00950015E4B
:101E06000A50025A0B50035A0C50045A0D50055AE8
:101E16000E50065A0F50075A1050085AD8901032D2
:101E26000F320E320D320C320B320A320932112EBB
:101E3600EAEF0EF01250D8B423EF0FF025EF0FF0B3
:101E460035EF0FF0081E071E061E051E041E031E94
:101E5600021E016C000E0222032204220522062223
:101E66000722082201C501F502C502F503C503F5DF
:101E760004C504F505C505F506C506F507C507F548
:101E860008C508F512002A0E016E000E026E2C0E11
:101E9600036E000E046E18EC13F001C56FF502C553
:101EA60070F52E0E016E000E026E2C0E036E000EE5
:101EB600046E18EC13F001C56DF502C56EF5CDEC98
:101EC60013F001C56BF502C56CF56BC501F56CC564
:101ED60002F5036A6FC504F570C505F5066A05BE09
:101EE600060631EC12F001C560F502C561F503C5C1
:101EF60062F560C501F561C502F562C503F5000E20
:101F0600046E010E056E000E066EC2EC0FF001C5E2
:101F160060F502C561F503C562F56DC5A8F56EC528
:101F2600A9F50501AA6BA9BFAA696051A825606F2A
:101F36006151A921616F6251AA21626F60C501F5E5
:101F460061C502F562C503F50A0E046E000E056E44
:101F5600000E066EC2EC0FF001C560F502C561F514
:101F660003C562F59B0E5A6E160E5B6E60C55CF578
:101F760061C55DF562C55EF55FEC13F01200000EFB
:101F8600086E06BECBEF0FF0C9EF0FF0D3EF0FF0E0
:101F9600061E051E046C000E05220622010E086EA2
:101FA60003BEDAEF0FF0D8EF0FF0E2EF0FF0031EEB
:101FB600021E016C000E02220322010E081A000EF8
:101FC600096E000E0A6E000E0B6E04500510061008
:101FD600D8B4F0EF0FF0F2EF0FF021EF10F0010E92
:101FE600076EFBEF0FF0D890043605360636072A43
:101FF60006AE00EF10F002EF10F0F6EF0FF0D890FB
:1020060009360A360B360450015C05500258065054
:102016000358D8A011EF10F013EF10F01AEF10F0DC
:102026000450015E0550025A0650035A0980D890A2
:10203600063205320432072E02EF10F00850D8B4EB
:1020460027EF10F029EF10F02FEF10F00B1E0A1EED
:10205600096C000E0A220B2209C501F50AC502F514
:102066000BC503F51200050169A13CEF10F03EEF28
:1020760010F048EF10F015C50CF516C50DF513C593
:102086000EF514C50FF580EC12F018BE4DEF10F0EA
:102096004FEF10F055EF10F017C51CF518C51DF5DC
:1020A60059EF10F0000E1D6E000E1C6E000E1B6E1A
:1020B600000E1A6E6BEF10F0000E046E200E036E0B
:1020C60013C505F514C506F599EC10F01A4A1B2A36
:1020D6001C501A5C1B50800A196E1D50800A195834
:1020E600D8A078EF10F07AEF10F05FEF10F005014E
:1020F60069B180EF10F082EF10F08CEF10F015C58B
:102106000CF516C50DF513C50EF514C50FF580ECC7
:1021160012F015C501F516C502F5DFEC12F01C50DC
:102126000124136E1D500220146E12000550061075
:10213600D8B4A0EF10F0A2EF10F0ABEF10F00550FE
:102146000610D8A4A9EF10F0ABEF10F0B0EF10F026
:102156000350FBEC13F0E3EF10F020EE04F0055013
:10216600D9260650DA22DE50DE10D8B4BDEF10F0C4
:10217600BFEF10F0DAEF10F020EE04F00550D9268C
:102186000650DA2210EE02F00550E1260650E22251
:10219600DE50E65CE650800A0B6EDE50800A0B5875
:1021A600D8B0D8EF10F0DAEF10F0E3EF10F020EE31
:1021B60002F00550D9260650DA22DE2A000EDD226C
:1021C600120048EC13F0D68E3C0E0301EC6F73EC54
:1021D60013F005017105D8A4F3EF10F0F5EF10F038
:1021E60010EF11F0000E716FC0B2FCEF10F0FFEFB0
:1021F60010F0010E00EF11F0000EFF0A5F6E5F4651
:10220600C0505F18FD0B5F18C06EB40E5A6E160EE6
:102216005B6E5FEC13F0ECEF10F07205D8A416EFCE
:1022260011F018EF11F0ECEF10F0000E726F46ECA3
:102236000FF0ECEF10F00DEF00F0000EBE6E000E8A
:10224600BF6E000EC06E0F0EC66E700EC76EFD0E10
:10225600C86ED60E0401106FD00E086F330E006FD5
:10226600000E096F000E016F030E116F000E026F54
:10227600000E0A6F000E126F370E036FF00E0B6F13
:1022860013693F0E046FF00E0C6F1469130E0201F2
:10229600586F150E576F0A0E056F020E616F100EFE
:1022A600106F100E486F0B0E066F0D0E726F120038
:1022B600000E606E020E616E000E626E7F0E636E21
:1022C600020E646E000E656E000E666E000E676E80
:1022D600000E686E800E6A6EA00E6B6E000E6C6E3F
:1022E600A00E6D6E000E6E6EB79CB79E67906792DD
:1022F600AC9EAC9C000E016E000E026EECEC13F070
:10230600000E016E000E026EE7EC13F0000E016E79
:10231600000E026EF1EC13F0800E696E1200000ED4
:102326000301D96F000EDA6F000EDB6F000EDC6F53
:10233600000EDF6F000EE06F000EE56F000EE76F18
:10234600000EEC6F0F0EEE6F000EEF6F000EF06FCB
:10235600000EF16F000EF26F000EF46F100EF56FA7
:10236600000EF66F000EF76F030EF86F030EF96F8F
:10237600030EFA6F940EF36FB494A984120E016ED5
:10238600280E026EF6EC13F01200000E0201A56F85
:10239600000EA66F000EA76F000EA86F000EA96FA5
:1023A600000EAA6FB00EAB6F800EAC6F000EAD6F55
:1023B600820EAE6F060EAF6F000EB06F000EB16FDD
:1023C600000EB26F000EB36F000E016E000E026EAD
:1023D600DDEC13F0000E016E000E026ED8EC13F069
:1023E600000E016E000E026EE2EC13F0000E050107
:1023F600736F120054C558F555C559F5000E050101
:10240600646F000E636F1BEF12F052C542F553C5A1
:1024160043F5580E446E050E456E56C546F557C52E
:1024260047F5D5EC0CF04250050163274350642371
:10243600610060F5F6F4610064F5F7F4F86A0800E7
:10244600F5500009D8A42AEF12F02CEF12F008EF8D
:1024560012F063C552F564C553F51200000E076EFF
:10246600000E086E000E096E01A03CEF12F03EEF62
:1024760012F044EF12F004500726055008220650C9
:102486000922D890043605360636D8900332023231
:102496000132015002100310D8A454EF12F056EF87
:1024A60012F037EF12F007C501F508C502F509C5A8
:1024B60003F51200A8AA62EF12F064EF12F06FEFB4
:1024C60012F0B3AA69EF12F06BEF12F06FEF12F091
:1024D60000EC14F07FEF12F0A9A474EF12F076EF7F
:1024E60012F07FEF12F0B4A47BEF12F07DEF12F042
:1024F6007FEF12F030EC13F01100000E126E000E9A
:10250600116E91EF12F010C503F5046A0EC505F5BC
:102516000FC506F599EC10F0114A122A11500C2439
:10252600D96E12500D20DA6EDF50106E1050D8A4FE
:102536009FEF12F0A1EF12F086EF12F0120014BE18
:10254600AFEF12F0145006E11304D8B0ADEF12F05D
:10255600AFEF12F0BDEF12F013C515F514C516F561
:10256600151E161E154A162A15C513F516C514F599
:10257600C1EF12F013C513F514C514F51200000EC1
:102586000301156F000E166F040E176FC30E136F3F
:10259600740E126FB698125160004CFC01F5026A77
:1025A60001C502F5016A01100501946F0250956F8D
:1025B600050E0301146F120001C503F502C504F5EB
:1025C600E7EF12F0014A022A610004F4D9F461002F
:1025D60008F4DAF4DF50D8A4F3EF12F0F5EF12F0B6
:1025E600E5EF12F00350015C016E04500258026ED2
:1025F6001200000E0001D56F0A0ED76F100ED86FAD
:10260600000ED96F000EDA6F000EDB6F020EDC6F64
:10261600000EDD6F000EDE6F000EDF6F000ED46F52
:102626009E0ED66FB39AA88A120061000CF4F8F4D5
:10263600610008F4F7F4610004F4F6F4090061009F
:10264600D4F307F508006100D4F308F50850056EC9
:102656000750016E05C502F51200B49405019651A6
:102666009711D8B439EF13F03BEF13F047EF13F09F
:1026760002D847EF13F00500FA6E9651FD6E97519A
:10268600FE6EFF6AFA50120012000DEC14F0A5EC73
:1026960013F020EC11F0B3EC13F005EC14F0FCECA5
:1026A60012F092EC11F096EC13F0C2EC12F0C8ECBA
:1026B60011F05BEC11F012005C0E0501A66F050E21
:1026C600A76F000E526E000E536E5AC554F55BC5C9
:1026D60055F5A60E566E050E576EFDEC11F012005E
:1026E600780E5A6E160E5B6E5FEC13F03D0E5A6E48
:1026F600160E5B6E5FEC13F0010E5A6E160E5B6ED5
:102706005FEC13F0120001EE60F1340EEE6AE8069B
:10271600FDE10401080E5D6F000E5E6F000E5F6F37
:102726000001E4EF10F0040E0301206F120E1F6F7C
:10273600000E216FE80E1D6F000E1C6FB696C00EC0
:102746001E6F1200000E0001636F000E646F000E14
:10275600656F000E666F000E676F000E686F1200E1
:10276600600E0001AD6F000EAF6F000EB36F080E66
:10277600B16F000EB06F000EAC6F1200016EB7A203
:10278600C7EF13F0C9EF13F0C2EF13F0610004F4C2
:10279600A3F212000301EB51046E036AEA5103240B
:1027A600016E000E0420026E120001C5A0F502C5DE
:1027B600A1F5120001C5A2F502C5A3F5120001C5D7
:1027C6009EF502C59FF5120001C59AF502C59BF557
:1027D600120001C59CF502C59DF5120001C598F5CC
:1027E60002C599F5120001C596F502C597F51200C6
:1027F600026E0250C1EC13F01200B39A010E0501ED
:10280600716F1200B20E0301D76F1200010E05019F
:08281600726F1200D69A120045
:020000040020DA
:10000000FF0FFF0FFF0FFF0FFF0FFF0FFF0FFF0F80
:10001000FF0FFF0FFF0FFF0FFF0FFF0FFF0FFF0F70
:020000040030CA
:0A0000008CFFF7FF9FFFFFFFFFFFDB
:00000001FF
