:040000000DEF00F010
:0400080001EF05F00F
:10001800FF009EEF05F025AE02D0010E01D0000EC4
:100028002E6E2E50D8B404D0246C251ED8B0252AA4
:1000380050AE05D0000E296E010E286E04D04FC5B3
:1000480028F550C529F560C52AF561C52BF52E5050
:10005800D8B410D02A06D8A02B062E50D8A404D085
:10006800000E276E2B0E03D0000E276E2D0E266E67
:1000780026C52EF5000E2D6E1F0E2C6E000E936FEA
:1000880030D02C06D8A02D06740E2C24D96E050E5F
:100098002D20DA6E24C505F525C506F5000E086E77
:1000A8000A0E076E70EC03F005C50BF506C50CF5D6
:1000B80057EC05F00B50300FDF6E2806D8A0290644
:1000C8002A06D8A02B0624C505F525C506F5000E79
:1000D800086E0A0E076E7BEC02F005C524F506C50E
:1000E80025F52DBE10D02D5003E12C04D8A00BD03F
:1000F80024502510D8A4C5D729BE05D02950C1E160
:100108002804D8B0BED72E50D8B40BD02C06D8A00F
:100118002D06740E2C24D96E050E2D20DA6E2EC5F0
:10012800DFF422C517F523C518F5740E2C24196EB3
:10013800050E2D201A6E2AC51BF52BC51CF516ECCD
:1001480004F0120031C5D9F432C5DAF4DEC4F6F48D
:10015800DDC4F7F4F86A0800F550250AD8A461D080
:1001680031C5D9F432C5DAF4DE2A000EDD22000EDC
:100178000501616F000E606F60C557F54F685068E4
:1001880031C5D9F432C5DAF4DEC43BF5DDC43CF53B
:100198003BC5F6F43CC5F7F4F86A0800F550640A64
:1001A800D8B40AD03BC5F6F43CC5F7F4F86A0800A1
:1001B800F550690AD8A42DD033C5D9F434C5DAF47A
:1001C800DFC435F5020EDE26DFC436F5000EDD226B
:1001D80035C5D9F436C5DAF4DEC437F5DDC438F5EB
:1001E800010E3B24356E000E3C20366E31C5D9F425
:1001F80032C5DAF435C5DEF436C5DDF42FC522F58F
:1002080030C523F537C524F538C525F50FEC00F0C2
:10021800120031C5D9F432C5DAF4DE2A000EDD2227
:10022800120031C5D9F432C5DAF4DEC4F6F4DDC4FF
:10023800F7F4F86A0800F550076E086A2FC509F543
:1002480030C50AF5DDEC01F0E4D72DEC06F005C564
:1002580062F506C563F562C505F563C506F5076A67
:1002680066C508F567C509F50A6A09BE0A069BEC62
:1002780004F005C54CF506C54DF507C54EF54CC54A
:1002880005F54DC506F54EC507F5000E086E010EBD
:10029800096E000E0A6E89EC01F005C54CF506C51D
:1002A8004DF507C54EF564C5A4F565C5A5F5050169
:1002B800A66BA5BFA6694C50A4254C6E4D50A52130
:1002C8004D6E4E50A6214E6E4CC505F54DC506F532
:1002D8004EC507F50A0E086E000E096E000E0A6E6E
:1002E80089EC01F005C54CF506C54DF507C54EF579
:1002F800D50E456EFF0E466E4CC547F54DC548F503
:100308004EC549F5DBEC05F01200000E0C6E0AAE86
:1003180008D00A1E091E086C000E09220A22010EC6
:100328000C6E07AE08D0071E061E056C000E0622CE
:100338000722010E0C1A000E0D6E000E0E6E000E36
:100348000F6E085009100A10D8B423D0010E0B6E96
:1003580005D0D890083609360A360B2A0AAEF9D7DE
:10036800D8900D360E360F360850055C09500658E1
:100378000A500758D8A007D00850055E0950065AF9
:100388000A50075A0D80D8900A32093208320B2ECB
:10039800E7D70C50D8B406D00F1E0E1E0D6C000EF9
:1003A8000E220F220DC505F50EC506F50FC507F57A
:1003B800120009500A10D8B404D009500A10D8A461
:1003C80004D0075038EC06F0120020EE0AF009506D
:1003D800D9260A50DA22DE50DE10D8B416D020EE24
:1003E8000AF00950D9260A50DA2210EE03F0095013
:1003F800E1260A50E222DE50E65CE650800A0F6EE3
:10040800DE50800A0F58D8B0120020EE03F00950D1
:10041800D9260A50DA22DEC40BF5DDC40CF509C56D
:10042800D9F40AC5DAF4DEC40DF5DDC40EF50B50B7
:100438000D24D96E0C500E20DA6E07C5DFF420EEBD
:1004480003F00950D9260A50DA22DE2A000EDD22EE
:100458001200000EBE6E000EBF6E000EC06E0F0EB4
:10046800C66E700EC76EFD0EC86E330E0401006FA7
:10047800D00E086FFE0E106F000E016F000E096F90
:10048800030E116F000E026F000E0A6F000E126F3E
:10049800370E036FF00E0B6F13693F0E046FF00EEB
:1004A8000C6F1469000E0201876F000E866F020E32
:1004B800616F0D0E726F100E486F100E106F0A0EDE
:1004C800056F0B0E066F000E0401056F000E066F18
:1004D800000E076F000E0D6F000E0E6F000E0F6FEF
:1004E800000E156F000E166F000E176F1200000E2B
:1004F8000A6E08AE06D0076C081ED8B0082A010E8E
:100508000A6E06AE06D0056C061ED8B0062A010E85
:100518000A1A000E0C6E000E0B6E07500810D8B4A5
:100528001CD0010E096E04D0D89007360836092A67
:1005380008AEFAD7D8900B360C360750055C085031
:100548000658D8A005D00750055E0850065A0B80FB
:10055800D89008320732092EEDD70A50D8B404D003
:100568000B6C0C1ED8B00C2A0BC505F50CC506F58E
:100578001200000E0201A16F000EA26F000EA36F01
:10058800000EA46F000EA56F000EA66F000EA76FD9
:10059800000EA86F000EA96F000EAA6F300EAB6F89
:1005A800800EAC6F000EAD6FA00EAE6F010EAF6F78
:1005B800200EB06F000EB16F800EB26F000EB36FD9
:1005C800000E056E000E066E5EEC06F0000E056E5F
:1005D800000E066E55EC06F0000E056E000E066E57
:1005E8004CEC06F0000E05016B6F000E6A6F1200EE
:1005F800F7C408F5096A0A6A0B6A0AC50BF509C542
:100608000AF508C509F5086AF8C40CF50D6A0E6AFA
:100618000F6A0DC50FF50CC50EF50D6A0C6A08506A
:100628000C10106E09500D10116E0A500E10126E3B
:100638000B500F10136EF6501010146E1150156EEB
:100648001250166E1350176E07C5F8F406C5F7F466
:1006580005C5F6F4080016C5F8F415C5F7F414C571
:10066800F6F4F55012002A0E056E000E066E2C0EDA
:10067800076EFCEC02F0186E2B0E056E000E066E6F
:100688002C0E076EFCEC02F0196E19501B6E1A6ADC
:1006980018501A240501666F000E1B20676F2E0E76
:1006A800056E000E066E2C0E076EFCEC02F0186E3E
:1006B8002F0E056E000E066E2C0E076EFCEC02F077
:1006C800196E19501B6E1A6A18501A240501646FA6
:1006D800000E1B20656F1200000E0A6E06AE06D0D3
:1006E800056C061ED8B0062A010E0A6E08AE04D0A4
:1006F800076C081ED8B0082A07500810D8B418D0BC
:10070800010E096E04D0D89007360836092A08AEBB
:10071800FAD70750055C08500658D8A004D00750EF
:10072800055E0850065AD89008320732092EF1D7CC
:100738000A50D8B404D0056C061ED8B0062A05C5E0
:1007480005F506C506F51200000E606E020E616E14
:10075800000E626E7F0E636E020E646E000E656E92
:10076800000E666E000E676E000E686E800E6A6E72
:10077800A00E6B6E000E6C6EA00E6D6E000E6E6E8F
:10078800B79CB79E67906792AC9EAC9C000E056EB6
:10079800000E066E7BEC06F0000E056E000E066E6F
:1007A80076EC06F0000E056E000E066E80EC06F084
:1007B800800E696E1200000E0301D96F000EDA6F09
:1007C800000EDB6F000EDC6F000EDF6F000EE06FB7
:1007D800000EE56F000EE76F000EEC6F0F0EEE6F68
:1007E800000EEF6F000EF06F000EF16F000EF26F4B
:1007F800000EF46F100EF56F000EF66F000EF76F17
:10080800030EF86F030EF96F030EFA6F940EF36F71
:10081800B4945E0E056E0D0E066E99EC06F0A98472
:10082800B59012001CBE05D01BC520F51CC521F5CE
:1008380004D0000E216E000E206E000E1F6E000EFA
:100848001E6E0CD0000E086E200E076E17C509F537
:1008580018C50AF5DDEC01F01E4A1F2A20501E5C5F
:100868001F50800A1D6E2150800A1D58D8A0EAD753
:1008780019C510F51AC511F517C512F518C513F5E0
:1008880021EC05F0120070EC05F0D68E3C0E030149
:10089800EC6FC8EC05F037EC03F05A04D8A417D075
:1008A800000E5A6EC0A202D0010E01D0000EFF0A3F
:1008B8000501A76FA747C050A719FD0BA719C06E60
:1008C800EE0E456EFF0E466EDBEC05F0E6D75B04D8
:1008D800D8A4E3D7000E5B6E29EC01F0DED7030144
:1008E8001491000E156F000E166F040E176FC30ECD
:1008F800136F730E126F125113C307F5086A07C5F9
:1009080008F5076A0710556E0850566E640E056E96
:100918000D0E066E6CEC06F0000E056E000E066EEF
:1009280071EC06F0B698AB88050E146F1200000E35
:100938000B6E000E0C6E000E0D6E05A006D0085052
:100948000B2609500C220A500D22D8900836093679
:100958000A36D890073206320532055006100710BD
:10096800D8A4EBD70BC505F50CC506F50DC507F5DD
:100978001200000E0001D56F0A0ED76F100ED86F47
:10098800000ED96F000EDA6F000EDB6F020EDC6FFF
:10099800000EDD6F000EDE6F000EDF6F000ED46FED
:1009A8009E0ED66FB39A580E056E0D0E066E94EC19
:1009B80006F0A88A12003FC543F540C544F50ED09D
:1009C8003DC52FF53EC530F5430E316E050E326E2E
:1009D80041C533F542C534F5A6EC00F043C5F6F43D
:1009E80044C5F7F4F86A0800F5500009D8A4E8D718
:1009F800000E3E6E000E3D6E1200FAC403F5FBC4F5
:100A080004F5A8BEB3AE03D0B4EC06F011D0A8BA72
:100A1800B3AA03D0EEEC05F00BD0ABB8B6A803D060
:100A280087EC05F005D0A9B4B4A402D0FFEC05F01A
:100A380004C5FBF403C5FAF41100000E166E000E8F
:100A4800156E0BD014C507F5086A12C509F513C54C
:100A58000AF5DDEC01F0154A162A15501024D96E56
:100A680016501120DA6EDF50146E1450D8B41200EC
:100A7800E9D7D69AB490D680000E056E000E066EA1
:100A88008FEC06F0B990D682000E056E000E066E49
:100A98008AEC06F0BD90D684000E056E000E066E38
:100AA80085EC06F012000CBE05D00C5010E10B04CA
:100AB800D8B00DD00BC50DF50CC50EF50D1E0E1ECC
:100AC8000D4A0E2A0DC50BF50EC50CF512000BC507
:100AD8000BF50CC50CF512001FEC06F02DEC02F01E
:100AE800DFEC03F0BDEC04F09EEC06F0A6EC06F09B
:100AF800A8EC03F073EC04F0B4EC05F0BDEC02F0E4
:100B08003DEC05F01200B69855C501F556C502F53D
:100B180010EC06F0050198519911D8B4120001D8CB
:100B280012000500FA6E9851FD6E9951FE6EFF6A2B
:100B3800FA50120001EE60F1340EEE6AE806FDE1AB
:100B480001EE4CF1100EEE6AE806FDE10401080E14
:100B58005D6F000E5E6F000E5F6F000147EF04F0DF
:100B6800040E206F120E1F6F000E216FE80E1D6F0E
:100B7800000E1C6F660E056E0D0E066E67EC06F015
:100B8800B696C00E1E6F1200B20E456EFF0E466E70
:100B9800DBEC05F0770E456EFF0E466EDBEC05F0DC
:100BA8003B0E456EFF0E466EDBEC05F01200470E5D
:100BB8004A6E050E4B6E000E3D6E000E3E6E45C52C
:100BC8003FF546C540F54A0E416E050E426EDFEC14
:100BD80004F01200B39A0501A051A111D8B4120073
:100BE80001D812000500FA6EA051FD6EA151FE6EEB
:100BF800FF6AFA501200B4940501A251A311D8B4A7
:100C0800120001D812000500FA6EA251FD6EA35120
:100C1800FE6EFF6AFA501200030114A507D0149162
:100C280002C513F301C512F31481120002C513F3B0
:100C380001C512F31200600E0001AD6F000EAF6F18
:100C4800000EB36F080EB16F000EB06F000EAC6FE0
:100C580012000301EB51086E076AEA510724056E7A
:100C6800000E0820066E1200066E42EC06F000091F
:100C7800D8B4FBD70650A2EC06F01200000E056EA1
:100C88000201B0BBABAB02D0010E056E05501200DD
:100C980005500610D8B4120005C568F506C569F5F3
:100CA800120005500610D8B4120005C551F506C546
:100CB80052F5120005500610D8B4120005C553F5B8
:100CC80006C554F5120005C594F506C595F512003C
:100CD80005C598F506C599F5120005C596F506C52A
:100CE80097F5120005C59CF506C59DF5120005C5CA
:100CF8009EF506C59FF5120005C59AF506C59BF534
:100D0800120005C56EF506C56FF5120005C570F52C
:100D180006C571F5120005C572F506C573F5120012
:100D280005C5A0F506C5A1F5120005C5A2F506C5BD
:100D3800A3F51200F20E0301D76F1200056E05C568
:100D4800A3F21200A9EC06F012000001419F120064
:100D5800010E5A6E1200010E5B6E12001200120094
:020D6800120077
:10FEF200007A0500000000440D0000840C000000A0
:10FF020000000000000000000000000000000000EF
:10FF1200000000000000000000BC0CAA0C980C00BD
:10FF220000680B000000000000CE0C0000E6080094
:10FF32000000000000D80C00002D2D2D2D2D2D2DA0
:10FF42002D2D2D2D2D2D2D2D2D2D2D2D2D2D2D2DDF
:10FF52002D2D2D2D2D2D2D2D2D2D2D2D2D2D2D2DCF
:10FF62002D2D2D2D2D2D2D2D2D2D2D2D2D2D2D2DBF
:10FF72002D200D0A00506C656173652072656665FF
:10FF82007220746F20696E636C756465642072659B
:10FF920061646D652E6D6420666F72206D6F72658F
:10FFA20020696E666F726D6174696F6E200D0A0052
:10FFB20050494331384631365134302043757269E5
:10FFC2006F73697479204E616E6F2044656D6F2086
:10FFD2000D0A0054656D702053656E736F72205266
:10FFE2006573756C74202564200D0A005357302008
:0DFFF2005072657373656421200D0A0000D4
:020000040020DA
:10000000FFFFFFFFFFFFFFFFFFFFFFFFFFFFFFFF00
:10001000FFFFFFFFFFFFFFFFFFFFFFFFFFFFFFFFF0
:10002000FFFFFFFFFFFFFFFFFFFFFFFFFFFFFFFFE0
:10003000FFFFFFFFFFFFFFFFFFFFFFFFFFFFFFFFD0
:020000040030CA
:090000008CFFF7FF9FFFFFFFFFDB
:00000001FF
