:020000040000FA
:040000000DEF00F010
:04000800CAEF12F039
:06001800FF00ADEF12F045
:1016000000161E0000C425000000000E260426F06F
:101610002500000000000000000000C824000000B9
:1016200000000018260000A2220000000000002296
:101630002600002D2D2D2D2D2D2D2D2D2D2D2D2D3B
:101640002D2D2D2D2D2D2D2D2D2D2D2D2D2D2D2DCA
:101650002D2D2D2D2D2D2D2D2D2D2D2D2D2D2D2DBA
:101660002D2D2D2D2D2D2D2D2D2D2D200D0A005004
:101670006C6561736520726566657220746F2069A0
:101680006E636C7564656420726561646D652E6D52
:101690006420666F72206D6F726520696E666F726E
:1016A0006D6174696F6E200D0A00504943313846F0
:1016B000313651343020437572696F736974792003
:1016C0004E616E6F2044656D6F200D0A0054656D8C
:1016D000702053656E736F7220526573756C742041
:1016E0002564200D0A0053573020507265737365CE
:0716F0006421200D0A000037
:1016F80020C538F521C539F522C53AF523C53BF58E
:1017080024C53CF525C53DF526C53EF527C53FF55D
:101718003FAE02D0010E01D0000E366E376A365049
:101728003710D8B410D03F1E3E1E3D1E3C1E3B1E37
:101738003A1E391E386C000E39223A223B223C22CE
:101748003D223E223F2280AF819380BF05D0805149
:1017580008E17F05D8B005D0000E336E010E326E59
:1017680004D07FC532F580C533F57DC534F57EC517
:1017780035F536503710D8A402D081A503D03406E9
:10178800D8A03506000E416E1F0E406E000EAF6FDA
:101798007CD04006D8A04106900E4024D96E050E94
:1017A8004120DA6E38C501F539C502F53AC503F5A9
:1017B8003BC504F53CC505F53DC506F53EC507F531
:1017C8003FC508F50A0E096E000E0A6E000E0B6E74
:1017D800000E0C6E000E0D6E000E0E6E000E0F6EDB
:1017E800000E106E1BEC0EF001C528F502C529F598
:1017F80003C52AF504C52BF505C52CF506C52DF539
:1018080007C52EF508C52FF528C513F52AC514F503
:1018180005EC12F01350300FDF6E3206D8A03306F5
:101828003406D8A0350638C501F539C502F53AC5DC
:1018380003F53BC504F53CC505F53DC506F53EC5B4
:1018480007F53FC508F50A0E096E000E0A6E000E70
:101858000B6E000E0C6E000E0D6E000E0E6E000E5E
:101868000F6E000E106E77EC0DF001C538F502C54D
:1018780039F503C53AF504C53BF505C53CF506C57C
:101888003DF507C53EF508C53FF541BE20D041509E
:1018980003E14004D8A01BD0385039103A103B104F
:1018A8003C103D103E103F10D8A473D733BE05D06E
:1018B800335002E13204D8B06CD735BE08D0355069
:1018C80003E13404D8A003D0050181B362D73650B0
:1018D8003710D8A403D0050181A518D04006D8A098
:1018E800410636503710D8A404D0000E316E2B0EA6
:1018F80003D0000E316E2D0E306E900E4024D96E3E
:10190800050E4120DA6E6100C0F4DFF41EC513F540
:101918001FC514F5900E4024156E050E4120166E55
:1019280034C517F535C518F506EC10F013C51EF5C6
:1019380014C51FF51200610010F5D9F4610014F503
:10194800DAF4DFC4F6F4160EF76EF86A0800F550FC
:10195800250AD8A4ABD0610010F5D9F4610014F5BC
:10196800DAF4DF2A000E05017E6F000E7D6F7DC55B
:1019780081F57EC582F57F698069610010F5D9F42B
:10198800610014F5DAF4DFC4F6F4160EF76EF86A9F
:101998000800F550640AD8B410D0610010F5D9F4E5
:1019A800610014F5DAF4DFC4F6F4160EF76EF86A7F
:1019B8000800F550690AD8A447D0610010F5D9F499
:1019C800610014F5DAF4DF2A610018F5D9F4610032
:1019D8001CF5DAF461007CF348F5020EDE2661009E
:1019E8007CF349F5000EDD22610020F5D9F4610091
:1019F80024F5DAF4610078F34AF5610074F34BF5E5
:101A0800000E4BBEFF0E4C6E4D6E4E6E4F6E506EFE
:101A1800516E42C51EF543C51FF54AC520F54BC595
:101A280021F54CC522F54DC523F54EC524F54FC506
:101A380025F550C526F551C527F57CEC0BF01EC5DC
:101A480042F51FC543F51200610010F5D9F4610095
:101A580014F5DAF4DFC4F6F4160EF76EF86A080027
:101A6800F550250AD8A416D0610010F5D9F4610004
:101A780014F5DAF4DF2A000E046E250E036E42C553
:101A880005F543C506F5C6EC10F0000E436E010ED1
:101A9800426E1200610010F5D9F4610014F5DAF411
:101AA800DF2A000E436E000E426E1200610010F530
:101AB800D9F4610014F5DAF4DFC4F6F4160EF76E03
:101AC800F86A0800F550036E046A42C505F543C577
:101AD80006F5C6EC10F0610010F5D9F4610014F5B4
:101AE800DAF4DF2AD2D7000E126E10AE12D0101E12
:101AF8000F1E0E1E0D1E0C1E0B1E0A1E096C000E5C
:101B08000A220B220C220D220E220F221022010E75
:101B1800126E08AE12D0081E071E061E051E041EF1
:101B2800031E021E016C000E02220322042205225B
:101B3800062207220822010E121A21EE13F1070EBF
:101B4800DE6AE806FDE209500A100B100C100D10B1
:101B58000E100F101010D8B446D0010E116E0AD016
:101B6800D89009360A360B360C360D360E360F3637
:101B78001036112A10AEF4D7D8901336143615360D
:101B880016361736183619361A360950015C0A50B7
:101B980002580B5003580C5004580D5005580E505D
:101BA80006580F50075810500858D8A011D009509F
:101BB800015E0A50025A0B50035A0C50045A0D5039
:101BC800055A0E50065A0F50075A1050085A1380DB
:101BD800D89010320F320E320D320C320B320A32DC
:101BE8000932112EC9D71250D8B410D01A1E191E96
:101BF800181E171E161E151E141E136C000E142216
:101C0800152216221722182219221A2213C501F5A5
:101C180014C502F515C503F516C504F517C505F570
:101C280018C506F519C507F51AC508F51200000EFE
:101C3800126E08AE12D0081E071E061E051E041ED0
:101C4800031E021E016C000E02220322042205223A
:101C5800062207220822010E126E10AE10D0101EA6
:101C68000F1E0E1E0D1E0C1E0B1E0A1E096C000EEA
:101C78000A220B220C220D220E220F2210220950BA
:101C88000A100B100C100D100E100F101010D8B4F5
:101C98003CD0010E116E0AD0D89009360A360B36A0
:101CA8000C360D360E360F361036112A10AEF4D714
:101CB8000950015C0A5002580B5003580C50045844
:101CC8000D5005580E5006580F5007581050085818
:101CD800D8A010D00950015E0A50025A0B50035A7E
:101CE8000C50045A0D50055A0E50065A0F50075AF8
:101CF8001050085AD89010320F320E320D320C3272
:101D08000B320A320932112ED3D71250D8B410D060
:101D1800081E071E061E051E041E031E021E016C59
:101D2800000E02220322042205220622072208228C
:101D380001C501F502C502F503C503F504C504F59F
:101D480005C505F506C506F507C507F508C508F56F
:101D58001200D7EC12F001C583F502C584F583C5DE
:101D680001F584C502F5036AB2C504F5B3C505F5E6
:101D7800066A05BE060674EC11F001C578F502C5C1
:101D880079F503C57AF578C501F579C502F57AC5FF
:101D980003F5000E046E010E056E000E066E64EC6F
:101DA8000FF001C578F502C579F503C57AF5B0C518
:101DB800D8F5B1C5D9F50501DA6BD9BFDA6978511B
:101DC800D825786F7951D921796F7A51DA217A6FCC
:101DD80078C501F579C502F57AC503F50A0E046ED2
:101DE800000E056E000E066E64EC0FF001C578F566
:101DF80002C579F503C57AF5CD0E586E78C559F543
:101E080079C55AF57AC55BF58BEC12F01200AC90E7
:101E1800000E016E000E026EF3EC12F0AC92000E92
:101E2800016E000E026EEEEC12F0AC94000E016E24
:101E3800000E026EFDEC12F0AC96000E016E000E64
:101E4800026EE9EC12F0000E0201A16F000EA26F03
:101E5800000EA36F000EA46F000EA56F000EA66FF4
:101E6800000EA76F000EA86F000EA96F000EAA6FD4
:101E7800300EAB6F800EAC6F000EAD6F9F0EAE6F65
:101E8800010EAF6F000EB06F000EB16F000EB26F93
:101E9800000EB36F000E016E000E026E02EC13F01E
:101EA800000E016E000E026EF8EC12F0000E016ECC
:101EB800000E026E07EC13F0000E0501876F12008A
:101EC800000E086E06AE08D0061E051E046C000E35
:101ED80005220622010E086E03AE08D0031E021E5C
:101EE800016C000E02220322010E081A000E096E70
:101EF800000E0A6E000E0B6E045005100610D8B4C2
:101F080023D0010E076E05D0D89004360536063664
:101F1800072A06AEF9D7D89009360A360B36045088
:101F2800015C0550025806500358D8A007D0045049
:101F3800015E0550025A0650035A0980D8900632AD
:101F480005320432072EE7D70850D8B406D00B1E46
:101F58000A1E096C000E0A220B2209C501F50AC5E2
:101F680002F50BC503F51200000EBE6E000EBF6E23
:101F7800000EC06E0F0EC66E700EC76EFD0EC86ED8
:101F8800100E0401006F800E086F020E106F000E15
:101F9800016F000E096F030E116F000E026F000E25
:101FA8000A6F000E126F370E036FF00E0B6F136976
:101FB8003F0E046FF00E0C6F1469020E0201616F80
:101FC8000D0E726F100E486F150E576F130E586F67
:101FD800100E106F0A0E056F0B0E066F000E04012F
:101FE800056F000E066F000E076F000E0D6F000ED6
:101FF8000E6F000E0F6F000E156F000E166F000E9D
:10200800176F1200050181A10AD015C50CF516C578
:102018000DF513C50EF514C50FF5CFEC11F018BE6C
:1020280005D017C51CF518C51DF504D0000E1D6E8A
:10203800000E1C6E000E1B6E000E1A6E0CD0000EE9
:10204800046E200E036E13C505F514C506F5C6EC1F
:1020580010F01A4A1B2A1C501A5C1B50800A196E71
:102068001D50800A1958D8A0EAD7050181B10AD0B5
:1020780015C50CF516C50DF513C50EF514C50FF5E8
:10208800CFEC11F015C501F516C502F54DEC12F0AF
:102098001C500124136E1D500220146E1200000EF5
:1020A800D96F000EDA6F000EDB6F000EDC6F000ECA
:1020B800DF6F000EE06F000EE56F000EE76F000E99
:1020C800EC6F0F0EEE6F000EEF6F000EF06F000E4C
:1020D800F16F000EF26F000EF46F100EF56F000E28
:1020E800F66F000EF76F030EF86F030EF96F030E0D
:1020F800FA6F940EF36FB494980E016E260E026E6A
:1021080039EC13F0A984B590000E016E000E026E32
:1021180034EC13F01200000E606E020E616E000EB9
:10212800626E000E636E000E646E000E656E000E29
:10213800666E000E676E000E686E800E6A6E000E88
:102148006B6E000E6C6E000E6D6E000E6E6EB79CA0
:10215800B79E67906792AC9EAC9C000E016E000E15
:10216800026E1BEC13F0000E016E000E026E16ECF0
:1021780013F0000E016E000E026E20EC13F0800EBC
:10218800696E120005500610D8B404D00550061028
:10219800D8A404D003503EEC13F0120020EE04F053
:1021A8000550D9260650DA22DE50DE10D8B416D0F3
:1021B80020EE04F00550D9260650DA2210EE02F07F
:1021C8000550E1260650E222DE50E65CE650800A21
:1021D8000B6EDE50800A0B58D8B0120020EE02F0C9
:1021E8000550D9260650DA22DE2A000EDD2212001A
:1021F80054C557F5000E05017C6F000E7B6F13D098
:1022080052C542F553C543F5570E446E050E456E4B
:1022180055C546F556C547F59FEC0CF042500501EB
:102228007B2743507C2361005CF5F6F4160EF76EAD
:10223800F86A0800F5500009D8A4E2D77BC552F522
:102248007CC553F5120036EC12F0D68E3C0E030115
:10225800EC6FBDEC12F096EC11F005018E05D8A4D8
:1022680014D0000E8E6FC0A202D0010E01D0000E55
:10227800FF0ADB6FDB47C050DB19FD0BDB19C06EB3
:10228800E60E586E8BEC12F0E8D78F05D8A4E5D788
:10229800000E8F6FADEC0EF0E0D7000E156F000E3C
:1022A800166F040E176FC30E136F740E126F125150
:1022B80060004CFC03F5046A03C504F5036A0310C7
:1022C8000501BE6F0450BF6F000E016E000E026E56
:1022D80011EC13F0B698B69A050E0301146F1200AC
:1022E800000E076E000E086E000E096E01A006D0E3
:1022F800045007260550082206500922D8900436B3
:1023080005360636D89003320232013201500210E7
:102318000310D8A4EBD707C501F508C502F509C510
:1023280003F512002A0E016E000E026E2C0E036ECB
:10233800000E046E1EEC12F001C5B2F502C5B3F52D
:102348002E0E016E000E026E2C0E036E000E046E31
:102358001EEC12F001C5B0F502C5B1F51200000E71
:102368000001D56F0A0ED76F100ED86F000ED96F07
:10237800000EDA6F000EDB6F020EDC6F000EDD6FF1
:10238800000EDE6F000EDF6F000ED46F9E0ED66F4C
:10239800B39AA88A1200000E126E000E116E0BD0AE
:1023A80010C503F5046A0EC505F50FC506F5C6EC9C
:1023B80010F0114A122A11500C24D96E12500D2017
:1023C800DA6EDF50106E1050D8B41200E9D7D69AE2
:1023D800B490D680000E016E000E026E2FEC13F042
:1023E800B990D682000E016E000E026E2AEC13F030
:1023F800BD90D684000E016E000E026E25EC13F01F
:10240800120014BE05D0145010E11304D8B00DD03A
:1024180013C515F514C516F5151E161E154A162AE8
:1024280015C513F516C514F5120013C513F514C513
:1024380014F5120061000CF4F8F4610008F4F7F4E4
:10244800610004F4F6F409006100D4F307F508000C
:102458006100D4F308F50850056E0750016E05C5F4
:1024680002F5120079EC12F064EC12F0EBEC11F0CA
:1024780051EC11F08FEC10F053EC10F00BEC0FF066
:10248800B3EC11F048EC13F04FEC13F0B8EC0FF08C
:10249800120001C503F502C504F502D0014A022A5B
:1024A800610004F4D9F4610008F4DAF4DF50D8A428
:1024B800F5D70350015C016E04500258026E1200F9
:1024C800040E0301206F120E1F6F000E216FE80E1D
:1024D8001D6F000E1C6F000E016E000E026E0CECDC
:1024E80013F0B696C00E1E6F1200600E0001AD6F9D
:1024F800700EAE6F000EAF6F000EB36F080EB16FA7
:10250800000EB26F000EB06F000EAC6F1200590EC5
:102518005E6E050E5F6E000E526E000E536E58C54D
:1025280054F55E0E556E050E566EFCEC10F012005A
:10253800B4940501D651D711D8B4120001D81200AD
:102548000500FA6ED651FD6ED751FE6EFF6AFA503D
:10255800120001EE60F1500EEE6AE806FDE104019A
:10256800080E5D6F000E5E6F000E5F6F000127EFB3
:1025780011F0AA0E586E8BEC12F06F0E586E8BECA1
:1025880012F0330E586E8BEC12F01200A9B4B4A4FA
:1025980003D09CEC12F01100A8AA1100B3AA1100F4
:1025A80043EC13F011000301EB51046E036AEA5186
:1025B8000324016E000E0420026E1200016EB7A201
:1025C800FED7610004F4A3F2120001C5C6F502C5E6
:1025D800C7F5120001C5CAF502C5CBF5120001C541
:1025E800CCF502C5CDF5120001C5B6F502C5B7F5A3
:1025F800120001C5C8F502C5C9F5120001C5B8F534
:1026080002C5B9F5120001C5B4F502C5B5F5120049
:1026180001C5BAF502C5BBF5120001C5BCF502C576
:10262800BDF5120001C5D0F502C5D1F5120001C5EE
:10263800D2F502C5D3F5120001C5CEF502C5CFF516
:10264800120001C5C0F502C5C1F5120001C5C2F5E9
:1026580002C5C3F5120001C5C4F502C5C5F51200CF
:1026680001C5D4F502C5D5F5120001C5D6F502C5D8
:10267800D7F51200026E0250E2EC12F01200B39A83
:10268800010E05018E6F1200F20E0301D76F1200C2
:08269800010E8F6F1200120009
:020000040020DA
:10000000FF0FFF0FFF0FFF0FFF0FFF0FFF0FFF0F80
:10001000FF0FFF0FFF0FFF0FFF0FFF0FFF0FFF0F70
:020000040030CA
:0A0000008CFFF7FF9FFFFFFFFFFFDB
:00000001FF
