:020000040000FA
:040000000DEF00F010
:0400080056EF12F0AD
:06001800FF000FEF12F0E3
:10160000002D2D2D2D2D2D2D2D2D2D2D2D2D2D2D37
:101610002D2D2D2D2D2D2D2D2D2D2D2D2D2D2D2DFA
:101620002D2D2D2D2D2D2D2D2D2D2D2D2D2D2D2DEA
:101630002D2D2D2D2D2D2D2D2D200D0A00506C65BD
:1016400061736520726566657220746F20696E63D0
:101650006C7564656420726561646D652E6D6420CF
:10166000666F72206D6F726520696E666F726D6154
:1016700074696F6E200D0A00504943313846313687
:1016800051343020437572696F73697479204E61EB
:101690006E6F2044656D6F200D0A0054656D7020DB
:1016A00053656E736F7220526573756C7420256478
:1016B000200D0A0053573020507265737365642102
:0516C000200D0A0000EE
:1016C60020C538F521C539F522C53AF523C53BF5C0
:1016D60024C53CF525C53DF526C53EF527C53FF590
:1016E6003FAE02D0010E01D0000E366E376A36507C
:1016F6003710D8B410D03F1E3E1E3D1E3C1E3B1E6A
:101706003A1E391E386C000E39223A223B223C2200
:101716003D223E223F2268AF699368BF05D06851DB
:1017260008E16705D8B005D0000E336E010E326EA3
:1017360004D067C532F568C533F565C534F566C5A9
:1017460035F536503710D8A402D069A503D0340633
:10175600D8A03506000E416E1F0E406E000E8F6F2C
:101766007CD04006D8A04106700E4024D96E050EE6
:101776004120DA6E38C501F539C502F53AC503F5DB
:101786003BC504F53CC505F53DC506F53EC507F563
:101796003FC508F50A0E096E000E0A6E000E0B6EA6
:1017A600000E0C6E000E0D6E000E0E6E000E0F6E0D
:1017B600000E106E02EC0EF001C528F502C529F5E3
:1017C60003C52AF504C52BF505C52CF506C52DF56B
:1017D60007C52EF508C52FF528C513F52AC514F536
:1017E6008EEC11F01350300FDF6E3206D8A03306A0
:1017F6003406D8A0350638C501F539C502F53AC50F
:1018060003F53BC504F53CC505F53DC506F53EC5E6
:1018160007F53FC508F50A0E096E000E0A6E000EA2
:101826000B6E000E0C6E000E0D6E000E0E6E000E90
:101836000F6E000E106E5EEC0DF001C538F502C598
:1018460039F503C53AF504C53BF505C53CF506C5AE
:101856003DF507C53EF508C53FF541BE20D04150D0
:1018660003E14004D8A01BD0385039103A103B1081
:101876003C103D103E103F10D8A473D733BE05D0A0
:10188600335002E13204D8B06CD735BE08D035509B
:1018960003E13404D8A003D0050169B362D73650FA
:1018A6003710D8A403D0050169A518D04006D8A0E2
:1018B600410636503710D8A404D0000E316E2B0ED8
:1018C60003D0000E316E2D0E306E700E4024D96E90
:1018D600050E4120DA6E6100C0F4DFF41EC513F573
:1018E6001FC514F5700E4024156E050E4120166EA8
:1018F60034C517F535C518F546EC0FF013C51EF5BA
:1019060014C51FF51200610010F5D9F4610014F535
:10191600DAF4DFC4F6F4160EF76EF86A0800F5502E
:10192600250AD8A4ABD0610010F5D9F4610014F5EE
:10193600DAF4DF2A000E0501666F000E656F65C5D5
:1019460069F566C56AF567696869610010F5D9F4D5
:10195600610014F5DAF4DFC4F6F4160EF76EF86AD1
:101966000800F550640AD8B410D0610010F5D9F417
:10197600610014F5DAF4DFC4F6F4160EF76EF86AB1
:101986000800F550690AD8A447D0610010F5D9F4CB
:10199600610014F5DAF4DF2A610018F5D9F4610064
:1019A6001CF5DAF461007CF348F5020EDE266100D0
:1019B6007CF349F5000EDD22610020F5D9F46100C3
:1019C60024F5DAF4610078F34AF5610074F34BF517
:1019D600000E4BBEFF0E4C6E4D6E4E6E4F6E506E31
:1019E600516E42C51EF543C51FF54AC520F54BC5C8
:1019F60021F54CC522F54DC523F54EC524F54FC539
:101A060025F550C526F551C527F563EC0BF01EC527
:101A160042F51FC543F51200610010F5D9F46100C7
:101A260014F5DAF4DFC4F6F4160EF76EF86A080059
:101A3600F550250AD8A416D0610010F5D9F4610036
:101A460014F5DAF4DF2A000E046E250E036E42C585
:101A560005F543C506F53BEC10F0000E436E010E8E
:101A6600426E1200610010F5D9F4610014F5DAF443
:101A7600DF2A000E436E000E426E1200610010F562
:101A8600D9F4610014F5DAF4DFC4F6F4160EF76E35
:101A9600F86A0800F550036E046A42C505F543C5A9
:101AA60006F53BEC10F0610010F5D9F4610014F571
:101AB600DAF4DF2AD2D7000E126E10AE12D0101E44
:101AC6000F1E0E1E0D1E0C1E0B1E0A1E096C000E8E
:101AD6000A220B220C220D220E220F221022010EA8
:101AE600126E08AE12D0081E071E061E051E041E24
:101AF600031E021E016C000E02220322042205228E
:101B0600062207220822010E121A21EE13F1070EF1
:101B1600DE6AE806FDE209500A100B100C100D10E3
:101B26000E100F101010D8B446D0010E116E0AD048
:101B3600D89009360A360B360C360D360E360F3669
:101B46001036112A10AEF4D7D8901336143615363F
:101B560016361736183619361A360950015C0A50E9
:101B660002580B5003580C5004580D5005580E508F
:101B760006580F50075810500858D8A011D00950D1
:101B8600015E0A50025A0B50035A0C50045A0D506B
:101B9600055A0E50065A0F50075A1050085A13800D
:101BA600D89010320F320E320D320C320B320A320E
:101BB6000932112EC9D71250D8B410D01A1E191EC8
:101BC600181E171E161E151E141E136C000E142248
:101BD600152216221722182219221A2213C501F5D8
:101BE60014C502F515C503F516C504F517C505F5A3
:101BF60018C506F519C507F51AC508F51200000E31
:101C0600126E08AE12D0081E071E061E051E041E02
:101C1600031E021E016C000E02220322042205226C
:101C2600062207220822010E126E10AE10D0101ED8
:101C36000F1E0E1E0D1E0C1E0B1E0A1E096C000E1C
:101C46000A220B220C220D220E220F2210220950EC
:101C56000A100B100C100D100E100F101010D8B427
:101C66003CD0010E116E0AD0D89009360A360B36D2
:101C76000C360D360E360F361036112A10AEF4D746
:101C86000950015C0A5002580B5003580C50045876
:101C96000D5005580E5006580F500758105008584A
:101CA600D8A010D00950015E0A50025A0B50035AB0
:101CB6000C50045A0D50055A0E50065A0F50075A2A
:101CC6001050085AD89010320F320E320D320C32A4
:101CD6000B320A320932112ED3D71250D8B410D093
:101CE600081E071E061E051E041E031E021E016C8C
:101CF600000E0222032204220522062207220822BF
:101D060001C501F502C502F503C503F504C504F5D1
:101D160005C505F506C506F507C507F508C508F5A1
:101D2600120063EC12F001C56BF502C56CF56BC5CC
:101D360001F56CC502F5036A92C504F593C505F570
:101D4600066A05BE0606FBEC10F001C560F502C585
:101D560061F503C562F560C501F561C502F562C5A9
:101D660003F5000E046E010E056E000E066EF2EC13
:101D76000EF001C560F502C561F503C562F590C5B3
:101D8600A4F591C5A5F50501A66BA5BFA669605189
:101D9600A425606F6151A521616F6251A621626F12
:101DA60060C501F561C502F562C503F50A0E046E4C
:101DB600000E056E000E066EF2EC0EF001C560F523
:101DC60002C561F503C562F59B0E586E60C559F5EF
:101DD60061C55AF562C55BF5EDEC11F01200000E17
:101DE600086E06AE08D0061E051E046C000E0522FF
:101DF6000622010E086E03AE08D0031E021E016CF9
:101E0600000E02220322010E081A000E096E000EB1
:101E16000A6E000E0B6E045005100610D8B423D0BF
:101E2600010E076E05D0D890043605360636072A09
:101E360006AEF9D7D89009360A360B360450015C3F
:101E46000550025806500358D8A007D00450015E2A
:101E56000550025A0650035A0980D89006320532B8
:101E66000432072EE7D70850D8B406D00B1E0A1E38
:101E7600096C000E0A220B2209C501F50AC502F5F6
:101E86000BC503F51200050169A10AD015C50CF5AD
:101E960016C50DF513C50EF514C50FF572EC11F048
:101EA60018BE05D017C51CF518C51DF504D0000EC3
:101EB6001D6E000E1C6E000E1B6E000E1A6E0CD0F0
:101EC600000E046E200E036E13C505F514C506F547
:101ED6003BEC10F01A4A1B2A1C501A5C1B50800A55
:101EE600196E1D50800A1958D8A0EAD7050169B1A4
:101EF6000AD015C50CF516C50DF513C50EF514C596
:101F06000FF572EC11F015C501F516C502F5D6EC04
:101F160011F01C500124136E1D500220146E120085
:101F2600000EBE6E000EBF6E000EC06E0F0EC66EA9
:101F3600700EC76EFD0EC86ED60E0401106FD00E61
:101F4600086F330E006F000E096F000E016F030E4F
:101F5600116F000E026F000E0A6F000E126F370E21
:101F6600036FF00E0B6F13693F0E046FF00E0C6FCC
:101F76001469130E0201586F150E576F0A0E056F7E
:101F8600020E616F100E106F100E486F0B0E066F6B
:101F96000D0E726F1200000E606E020E616E000E64
:101FA600626E7F0E636E020E646E000E656E000E2C
:101FB600666E000E676E000E686E800E6A6EA00E6C
:101FC6006B6E000E6C6EA00E6D6E000E6E6EB79C84
:101FD600B79E67906792AC9EAC9C000E016E000E99
:101FE600026E89EC12F0000E016E000E026E84EC99
:101FF60012F0000E016E000E026E8EEC12F0800ED4
:10200600696E1200000E0301D96F000EDA6F000E22
:10201600DB6F000EDC6F000EDF6F000EE06F000E50
:10202600E56F000EE76F000EEC6F0F0EEE6F000E01
:10203600EF6F000EF06F000EF16F000EF26F000EE4
:10204600F46F100EF56F000EF66F000EF76F030EAD
:10205600F86F030EF96F030EFA6F940EF36FB494D4
:10206600A9844C0E016E250E026E93EC12F012003E
:1020760005500610D8B404D005500610D8A404D0D4
:10208600035098EC12F0120020EE04F00550D92609
:102096000650DA22DE50DE10D8B416D020EE04F058
:1020A6000550D9260650DA2210EE02F00550E12638
:1020B6000650E222DE50E65CE650800A0B6EDE50E9
:1020C600800A0B58D8B0120020EE02F00550D9262F
:1020D6000650DA22DE2A000EDD221200000E020170
:1020E600A56F000EA66F000EA76F000EA86F000E5C
:1020F600A96F000EAA6FB00EAB6F800EAC6F000E0C
:10210600AD6F820EAE6F060EAF6F000EB06F000E93
:10211600B16F000EB26F000EB36F000E016E000EAF
:10212600026E7AEC12F0000E016E000E026E75EC75
:1021360012F0000E016E000E026E7FEC12F0000E21
:1021460005016F6F120054C557F5000E0501646F47
:10215600000E636F13D052C542F553C543F5570EB3
:10216600446E050E456E55C546F556C547F586ECD3
:102176000CF04250050163274350642361005CF56F
:10218600F6F4160EF76EF86A0800F5500009D8A4A2
:10219600E2D763C552F564C553F51200BFEC11F0E2
:1021A600D68E3C0E0301EC6F49EC12F01DEC11F0DB
:1021B60005016D05D8A414D0000E6D6FC0A202D023
:1021C600010E01D0000EFF0AA76FA747C050A7193E
:1021D600FD0BA719C06EB40E586EEDEC11F0E8D7E2
:1021E6006E05D8A4E5D7000E6E6F94EC0EF0E0D71E
:1021F600000E076E000E086E000E096E01A006D0D6
:10220600045007260550082206500922D8900436A5
:1022160005360636D89003320232013201500210DA
:102226000310D8A4EBD707C501F508C502F509C503
:1022360003F512002A0E016E000E026E2C0E036EBE
:10224600000E046EA7EC11F001C592F502C593F5D8
:102256002E0E016E000E026E2C0E036E000E046E24
:10226600A7EC11F001C590F502C591F51200000E1C
:10227600156F000E166F040E176FC30E136F740ED4
:10228600126FB698125160004CFC01F5026A01C546
:1022960002F5016A01100501946F0250956F050E53
:1022A6000301146F1200000E0001D56F0A0ED76FDE
:1022B600100ED86F000ED96F000EDA6F000EDB6FAE
:1022C600020EDC6F000EDD6F000EDE6F000EDF6F9C
:1022D600000ED46F9E0ED66FB39AA88A1200000E17
:1022E600126E000E116E0BD010C503F5046A0EC5F2
:1022F60005F50FC506F53BEC10F0114A122A1150F0
:102306000C24D96E12500D20DA6EDF50106E10506C
:10231600D8B41200E9D714BE05D0145010E1130446
:10232600D8B00DD013C515F514C516F5151E161E15
:10233600154A162A15C513F516C514F5120013C548
:1023460013F514C514F5120061000CF4F8F46100DD
:1023560008F4F7F4610004F4F6F409006100D4F31C
:1023660007F508006100D4F308F50850056E07501C
:10237600016E05C502F51200A9EC12F02DEC12F063
:1023860093EC0FF03BEC12F0A2EC12F056EC11F0CD
:1023960005EC10F01FEC12F03AEC11F071EC10F0B5
:1023A600CEEC0FF0120001C503F502C504F502D00C
:1023B600014A022A610004F4D9F4610008F4DAF44F
:1023C600DF50D8A4F5D70350015C016E04500258C3
:1023D600026E1200590E5E6E050E5F6E000E526E94
:1023E600000E536E58C554F55E0E556E050E566EAC
:1023F600A6EC10F01200B494050196519711D8B4CA
:10240600120001D812000500FA6E9651FD6E975122
:10241600FE6EFF6AFA50120001EE60F1300EEE6AAF
:10242600E806FDE10401080E5D6F000E5E6F000E0A
:102436005F6F0001D1EF10F0040E206F120E1F6FB8
:10244600000E216FE80E1D6F000E1C6FB696C00EB3
:102456001E6F1200000E0001636F000E646F000E07
:10246600656F000E666F000E676F000E686F1200D4
:10247600600E0001AD6F000EAF6F000EB36F080E59
:10248600B16F000EB06F000EAC6F1200780E586E72
:10249600EDEC11F03D0E586EEDEC11F0010E586E9C
:1024A600EDEC11F01200A8BAB3AA03D09DEC12F01D
:1024B6001100A9A41100B4A41100FEEC11F0110042
:1024C6000301EB51046E036AEA510324016E000E08
:1024D6000420026E1200016EB7A2FED7610004F45A
:1024E600A3F2120001C5A0F502C5A1F5120001C5AF
:1024F600A2F502C5A3F5120001C59EF502C59FF51A
:10250600120001C59AF502C59BF5120001C59CF59E
:1025160002C59DF5120001C598F502C599F5120090
:1025260001C596F502C597F51200026E02506EECD3
:1025360012F01200B39A010E05016D6F1200B20E71
:102546000301D76F1200010E6E6F1200D69A1200A9
:020000040020DA
:10000000FF0FFF0FFF0FFF0FFF0FFF0FFF0FFF0F80
:10001000FF0FFF0FFF0FFF0FFF0FFF0FFF0FFF0F70
:020000040030CA
:0A0000008CFFF7FF9FFFFFFFFFFFDB
:00000001FF
