:040000000DEF00F010
:0400080061EF03F0B1
:10001800FF0006EF07F025BE14EF00F017EF00F021
:10002800010E18EF00F0000E2E6E2E50D8B41FEF00
:1000380000F021EF00F025EF00F0246C251ED8B069
:10004800252A050163BF2DEF00F02BEF00F033EFF9
:1000580000F0000E296E010E286E37EF00F062C521
:1000680028F563C529F560C52AF561C52BF52E501D
:10007800D8B441EF00F043EF00F05AEF00F02A0641
:10008800D8A02B062E50D8A44CEF00F04EEF00F06D
:1000980054EF00F0000E276E2B0E266E58EF00F07E
:1000A800000E276E2D0E266E26C52EF5000E2D6E1F
:1000B8001F0E2C6E000E936F92EF00F02C06D8A046
:1000C8002D06740E2C24D96E050E2D20DA6E24C54B
:1000D80005F525C506F5000E086E0A0E076E09EC33
:1000E80003F005C50BF506C50CF567EC06F00B50DB
:1000F800300FDF6E2806D8A029062A06D8A02B06BE
:1001080024C505F525C506F5000E086E0A0E076E0E
:1001180048EC02F005C524F506C525F52DBE9DEF72
:1001280000F02D5008E12C04D8A09DEF00F09FEFBF
:1001380000F0B5EF00F024502510D8A4A6EF00F089
:10014800A8EF00F062EF00F029BEB5EF00F02950EB
:1001580006E12804D8B0B3EF00F0B5EF00F062EF85
:1001680000F02E50D8B4BBEF00F0BDEF00F0C8EFA0
:1001780000F02C06D8A02D06740E2C24D96E050E7E
:100188002D20DA6E2EC5DFF422C517F523C518F524
:10019800740E2C24196E050E2D201A6E2AC51BF517
:1001A8002BC51CF5C2EC04F0120031C5D9F432C5D8
:1001B800DAF4DEC4F6F4DDC4F7F4F86A0800F550A2
:1001C800250AD8A4EAEF00F0ECEF00F059EF01F0AF
:1001D80031C5D9F432C5DAF4DE2A000EDD22000E6C
:1001E8000501616F000E606F60C55BF56269636948
:1001F80031C5D9F432C5DAF4DEC43BF5DDC43CF5CB
:100208003BC5F6F43CC5F7F4F86A0800F550640AF3
:10021800D8B411EF01F013EF01F022EF01F03BC564
:10022800F6F43CC5F7F4F86A0800F550690AD8A452
:1002380020EF01F022EF01F050EF01F033C5D9F4BF
:1002480034C5DAF4DFC435F5020EDE26DFC436F530
:10025800000EDD2235C5D9F436C5DAF4DEC437F52B
:10026800DDC438F5010E3B24356E000E3C20366E99
:1002780031C5D9F432C5DAF435C5DEF436C5DDF456
:100288002FC522F530C523F537C524F538C525F522
:100298000FEC00F06EEF01F031C5D9F432C5DAF495
:1002A800DE2A000EDD226EEF01F031C5D9F432C529
:1002B800DAF4DEC4F6F4DDC4F7F4F86A0800F550A1
:1002C800076E086A2FC509F530C50AF5E3EC01F099
:1002D80050EF01F01200000E0C6E0ABE78EF01F02C
:1002E80076EF01F080EF01F00A1E091E086C000E7F
:1002F80009220A22010E0C6E07BE87EF01F085EF76
:1003080001F08FEF01F0071E061E056C000E062295
:100318000722010E0C1A000E0D6E000E0E6E000E56
:100328000F6E085009100A10D8B49DEF01F09FEF26
:1003380001F0CEEF01F0010E0B6EA8EF01F0D8909E
:10034800083609360A360B2A0AAEADEF01F0AFEFD0
:1003580001F0A3EF01F0D8900D360E360F36085095
:10036800055C095006580A500758D8A0BEEF01F09E
:10037800C0EF01F0C7EF01F00850055E0950065ABA
:100388000A50075A0D80D8900A32093208320B2ECB
:10039800AFEF01F00C50D8B4D4EF01F0D6EF01F074
:1003A800DCEF01F00F1E0E1E0D6C000E0E220F2248
:1003B8000DC505F50EC506F50FC507F51200095060
:1003C8000A10D8B4EAEF01F0ECEF01F0F5EF01F014
:1003D80009500A10D8A4F3EF01F0F5EF01F0FAEF95
:1003E80001F0075082EC07F047EF02F020EE0AF028
:1003F8000950D9260A50DA22DE50DE10D8B407EFA9
:1004080002F009EF02F024EF02F020EE0AF00950A2
:10041800D9260A50DA2210EE03F00950E1260A50D4
:10042800E222DE50E65CE650800A0F6EDE50800A5B
:100438000F58D8B022EF02F024EF02F047EF02F095
:1004480020EE03F00950D9260A50DA22DEC40BF553
:10045800DDC40CF509C5D9F40AC5DAF4DEC40DF516
:10046800DDC40EF50B500D24D96E0C500E20DA6E3B
:1004780007C5DFF420EE03F00950D9260A50DA2226
:10048800DE2A000EDD221200000E0A6E08BE51EFB1
:1004980002F04FEF02F057EF02F0076C081ED8B0D9
:1004A800082A010E0A6E06BE5EEF02F05CEF02F04B
:1004B80064EF02F0056C061ED8B0062A010E0A1A6F
:1004C800000E0C6E000E0B6E07500810D8B46FEFBC
:1004D80002F071EF02F099EF02F0010E096E79EF68
:1004E80002F0D89007360836092A08AE7EEF02F0E7
:1004F80080EF02F075EF02F0D8900B360C360750FB
:10050800055C08500658D8A08CEF02F08EEF02F078
:1005180093EF02F00750055E0850065A0B80D890FA
:1005280008320732092E80EF02F00A50D8B49FEF44
:1005380002F0A1EF02F0A5EF02F00B6C0C1ED8B090
:100548000C2A0BC505F50CC506F51200C9EC07F019
:1005580005C564F506C565F564C505F565C506F503
:10056800076A68C508F569C509F50A6A09BE0A0671
:10057800A6EC05F005C550F506C551F507C552F5B9
:1005880050C505F551C506F552C507F5000E086EAC
:10059800010E096E000E0A6E6FEC01F005C550F5EC
:1005A80006C551F507C552F566C54CF567C54DF545
:1005B8004E6A4DBE4E6850504C24506E51504D20DE
:1005C800516E52504E20526E50C505F551C506F574
:1005D80052C507F50A0E086E000E096E000E0A6E67
:1005E8006FEC01F005C550F506C551F507C552F584
:1005F800D50E456EFF0E466E50C547F551C548F5F8
:1006080052C549F56FEC07F01200000E0A6E06BEDF
:1006180012EF03F010EF03F018EF03F0056C061E5D
:10062800D8B0062A010E0A6E08BE1FEF03F01DEFB0
:1006380003F023EF03F0076C081ED8B0082A075010
:100648000810D8B42AEF03F02CEF03F050EF03F0B2
:10065800010E096E34EF03F0D89007360836092AE0
:1006680008AE39EF03F03BEF03F030EF03F007502B
:10067800055C08500658D8A044EF03F046EF03F095
:100688004AEF03F00750055E0850065AD890083222
:100698000732092E3BEF03F00A50D8B456EF03F0A7
:1006A80058EF03F05CEF03F0056C061ED8B0062A7D
:1006B80005C505F506C506F51200FAC403F5FBC421
:1006C80004F5A8AE6AEF03F06CEF03F077EF03F0E0
:1006D800B3AE71EF03F073EF03F077EF03F021ECA3
:1006E80008F0ADEF03F0A8AA7CEF03F07EEF03F06B
:1006F80089EF03F0B3AA83EF03F085EF03F089EFE6
:1007080003F0BFEC06F0ADEF03F0ABA88EEF03F0FB
:1007180090EF03F09BEF03F0B6A895EF03F097EF87
:1007280003F09BEF03F087EC06F0ADEF03F0A9A40C
:10073800A0EF03F0A2EF03F0ADEF03F0B4A4A7EF2E
:1007480003F0A9EF03F0ADEF03F0D7EC06F0ADEF3F
:1007580003F004C5FBF403C5FAF41100000EBE6EE5
:10076800000EBF6E000EC06E0F0EC66E700EC76E06
:10077800FD0EC86E330E0401006FD00E086FFE0E1A
:10078800106F000E016F000E096F030E116F000E3F
:10079800026F000E0A6F000E126F370E036FF00E15
:1007A8000B6F13693F0E046FF00E0C6F1469000E87
:1007B8000201876F000E866F020E616F0D0E726F59
:1007C800100E486F100E106F0A0E056F0B0E066F95
:1007D800000E0401056F000E066F000E076F000E75
:1007E8000D6F000E0E6F000E0F6F000E156F000ECE
:1007F800166F000E176F1200F7C408F5096A0A6A27
:100808000B6A0AC50BF509C50AF508C509F5086A92
:10081800F8C40CF50D6A0E6A0F6A0DC50FF50CC504
:100828000EF50D6A0C6A08500C10106E09500D1068
:10083800116E0A500E10126E0B500F10136EF650F8
:100848001010146E1150156E1250166E1350176E4C
:1008580007C5F8F405C508F506C509F507C50AF57D
:1008680009C508F50AC509F50A6A0850F76E05C5ED
:10087800F6F4080016C5F8F415C5F7F414C5F6F42F
:10088800F5501200000E0201A16F000EA26F000EBB
:10089800A36F000EA46F000EA56F000EA66F000ECA
:1008A800A76F000EA86F000EA96F000EAA6F300E7A
:1008B800AB6F800EAC6F000EAD6FA00EAE6F010E69
:1008C800AF6F200EB06F000EB16F800EB26F000ECA
:1008D800B36F000E056E000E066EADEC07F0000E4D
:1008E800056E000E066E9FEC07F0000E056E000EFA
:1008F800066E91EC07F0000E0501716F000E706F27
:100908001200EFEC06F0D68E3C0E0301EC6F5CECA7
:1009180007F0FFEC04F05E04D8A495EF04F097EF1D
:1009280004F0B2EF04F0000E5E6EC0B29EEF04F069
:10093800A1EF04F0010EA2EF04F0000EFF0A4F6EC3
:100948004F46C0504F18FD0B4F18C06EEE0E456E47
:10095800FF0E466E6FEC07F08FEF04F05F04D8A42B
:10096800B8EF04F0BAEF04F08FEF04F0000E5F6EFA
:10097800AAEC02F08FEF04F00DEF00F01CBEC7EFF9
:1009880004F0C9EF04F0CFEF04F01BC520F51CC537
:1009980021F5D3EF04F0000E216E000E206E000E3C
:1009A8001F6E000E1E6EE5EF04F0000E086E200E9E
:1009B800076E17C509F518C50AF5E3EC01F01E4ADC
:1009C8001F2A20501E5C1F50800A1D6E2150800A6D
:1009D8001D58D8A0F2EF04F0F4EF04F0D9EF04F0BA
:1009E80019C510F51AC511F517C512F518C513F56F
:1009F80045EC06F012002A0E056E000E066E2C0E4F
:100A0800076E00EC04F0186E2B0E056E000E066ED5
:100A18002C0E076E00EC04F0196E19501B6E1A6A42
:100A280018501A240501686F000E1B20696F2E0EDE
:100A3800056E000E066E2C0E076E00EC04F0186EA4
:100A48002F0E056E000E066E2C0E076E00EC04F0DD
:100A5800196E19501B6E1A6A18501A240501666F10
:100A6800000E1B20676F1200000E606E020E616E92
:100A7800000E626E7F0E636E020E646E000E656E6F
:100A8800000E666E000E676E000E686E800E6A6E4F
:100A9800A00E6B6E000E6C6EA00E6D6E000E6E6E6C
:100AA800B79CB79E67906792AC9EAC9C000E056E93
:100AB800000E066EE8EC07F0000E056E000E066EDE
:100AC800E3EC07F0000E056E000E066EEDEC07F085
:100AD800800E696E1200000E0301D96F000EDA6FE6
:100AE800000EDB6F000EDC6F000EDF6F000EE06F94
:100AF800000EE56F000EE76F000EEC6F0F0EEE6F45
:100B0800000EEF6F000EF06F000EF16F000EF26F27
:100B1800000EF46F100EF56F000EF66F000EF76FF3
:100B2800030EF86F030EF96F030EFA6F940EF36F4E
:100B3800B494380E056E100E066E06EC08F0A98403
:100B4800B5901200000E0B6E000E0C6E000E0D6EAE
:100B580005A0B1EF05F0B3EF05F0B9EF05F00850C7
:100B68000B2609500C220A500D22D8900836093657
:100B78000A36D8900732063205320550061007109B
:100B8800D8A4C9EF05F0CBEF05F0ACEF05F00BC525
:100B980005F50CC506F50DC507F5120003011491FE
:100BA800000E156F000E166F040E176FC30E136F2D
:100BB800730E126F125113C307F5086A07C508F5BB
:100BC800076A0710536E0850546E3E0E056E100EDD
:100BD800066ED9EC07F0000E056E000E066EDEEC10
:100BE80007F0B698AB88050E0301146F12003FC5D5
:100BF80043F540C544F50FEF06F03DC52FF53EC55A
:100C080030F5430E316E050E326E41C533F542C5DF
:100C180034F5D9EC00F043C5F6F444C5F7F4F86AA6
:100C28000800F5500009D8A41CEF06F01EEF06F0E6
:100C380001EF06F0000E3E6E000E3D6E1200000E33
:100C48000001D56F0A0ED76F100ED86F000ED96F3E
:100C5800000EDA6F000EDB6F020EDC6F000EDD6F28
:100C6800000EDE6F000EDF6F000ED46F9E0ED66F83
:100C7800B39A320E056E100E066E01EC08F0A88AC3
:100C88001200000E166E000E156E56EF06F014C513
:100C980007F5086A12C509F513C50AF5E3EC01F072
:100CA800154A162A15501024D96E16501120DA6EDE
:100CB800DF50146E1450D8A464EF06F066EF06F007
:100CC8004BEF06F012000CBE74EF06F00C5006E174
:100CD8000B04D8B072EF06F074EF06F082EF06F05E
:100CE8000BC50DF50CC50EF50D1E0E1E0D4A0E2A70
:100CF8000DC50BF50EC50CF586EF06F00BC50BF50B
:100D08000CC50CF51200B69853C501F554C502F58B
:100D180047EC07F0050198519911D8B496EF06F001
:100D280098EF06F0A4EF06F002D8A4EF06F005004D
:100D3800FA6E9851FD6E9951FE6EFF6AFA501200D4
:100D48001200D69AB490D680000E056E000E066E7C
:100D5800FCEC07F0B990D682000E056E000E066E08
:100D6800F7EC07F0BD90D684000E056E000E066EF7
:100D7800F2EC07F01200B39A0501A051A111D8B402
:100D8800C8EF06F0CAEF06F0D6EF06F002D8D6EFA5
:100D980006F00500FA6EA051FD6EA151FE6EFF6AC5
:100DA800FA5012001200B4940501A251A311D8B44C
:100DB800E0EF06F0E2EF06F0EEEF06F002D8EEEF15
:100DC80006F00500FA6EA251FD6EA351FE6EFF6A91
:100DD800FA5012001200BBEC07F0B2EC03F06FEC13
:100DE80005F023EC06F00BEC08F013EC08F038ECF7
:100DF80005F0D2EC05F01CEC07F046EC04F0A5EC8D
:100E080006F0120001EE60F1340EEE6AE806FDE12C
:100E180001EE50F1100EEE6AE806FDE10401080E3D
:100E28005D6F000E5E6F000E5F6F000185EF04F0CE
:100E3800040E0301206F120E1F6F000E216FE80EC3
:100E48001D6F000E1C6F400E056E100E066ED4EC62
:100E580007F0B696C00E03011E6F1200000E056E55
:100E68000201B0AB3AEF07F03CEF07F045EF07F0AF
:100E7800ABAB41EF07F043EF07F045EF07F0010E8A
:100E8800056E05501200030114A54DEF07F04FEF52
:100E980007F057EF07F014910250136F01C512F3D2
:100EA80014815BEF07F00250136F01C512F31200B3
:100EB800B20E456EFF0E466E6FEC07F0770E456E6C
:100EC800FF0E466E6FEC07F03B0E456EFF0E466E4A
:100ED8006FEC07F01200470E4A6E050E4B6E000EBF
:100EE8003D6E000E3E6E45C53FF546C540F54A0EBF
:100EF800416E050E426EFBEC05F01200066E32ECF8
:100F080007F00009D8B48BEF07F08DEF07F083EFF7
:100F180007F006500FEC08F0120005500610D8B480
:100F280098EF07F09AEF07F09EEF07F005C56AF50E
:100F380006C56BF5120005500610D8B4A6EF07F0E9
:100F4800A8EF07F0ACEF07F005C56CF506C56DF521
:100F5800120005500610D8B4B4EF07F0B6EF07F04A
:100F6800BAEF07F005C56EF506C56FF51200600EFD
:100F78000001AD6F000EAF6F000EB36F080EB16FBA
:100F8800000EB06F000EAC6F12000301EB51086E3B
:100F9800076AEA510724056E000E0820066E120043
:100FA80005C594F506C595F5120005C598F506C55D
:100FB80099F5120005C596F506C597F5120005C501
:100FC8009CF506C59DF5120005C59EF506C59FF55D
:100FD800120005C59AF506C59BF5120005C555F51D
:100FE80006C556F5120005C557F506C558F5120091
:100FF80005C559F506C55AF5120005C5A0F506C57B
:10100800A1F5120005C5A2F506C5A3F51200F20E5A
:101018000301D76F1200056E05C5A3F2120016EC86
:1010280008F012000001419F1200010E5E6E1200CE
:0C103800010E5F6E120012001200120088
:10FEF200008C08000000001E100000640E000000CC
:10FF020000000000000000000000000000000000EF
:10FF12000000000000000000005A0F3E0F220F00F8
:10FF220000380E000000000000A80F0000A40B0023
:10FF32000000000000B20F00002D2D2D2D2D2D2DC3
:10FF42002D2D2D2D2D2D2D2D2D2D2D2D2D2D2D2DDF
:10FF52002D2D2D2D2D2D2D2D2D2D2D2D2D2D2D2DCF
:10FF62002D2D2D2D2D2D2D2D2D2D2D2D2D2D2D2DBF
:10FF72002D200D0A00506C656173652072656665FF
:10FF82007220746F20696E636C756465642072659B
:10FF920061646D652E6D6420666F72206D6F72658F
:10FFA20020696E666F726D6174696F6E200D0A0052
:10FFB20050494331384631365134302043757269E5
:10FFC2006F73697479204E616E6F2044656D6F2086
:10FFD2000D0A0054656D702053656E736F72205266
:10FFE2006573756C74202564200D0A005357302008
:0DFFF2005072657373656421200D0A0000D4
:020000040020DA
:10000000FFFFFFFFFFFFFFFFFFFFFFFFFFFFFFFF00
:10001000FFFFFFFFFFFFFFFFFFFFFFFFFFFFFFFFF0
:10002000FFFFFFFFFFFFFFFFFFFFFFFFFFFFFFFFE0
:10003000FFFFFFFFFFFFFFFFFFFFFFFFFFFFFFFFD0
:020000040030CA
:090000008CFFF7FF9FFFFFFFFFDB
:00000001FF
