:020000040000FA
:040000000DEF00F010
:04000800BEEF12F045
:06001800FF0029EF14F0C7
:10160000002C210000722800000000DC28D228BE37
:101610002800000000000000000000B427000000C7
:10162000000000E62800003425000000000000F063
:101630002800002D2D2D2D2D2D2D2D2D2D2D2D2D39
:101640002D2D2D2D2D2D2D2D2D2D2D2D2D2D2D2DCA
:101650002D2D2D2D2D2D2D2D2D2D2D2D2D2D2D2DBA
:101660002D2D2D2D2D2D2D2D2D2D2D200D0A005004
:101670006C6561736520726566657220746F2069A0
:101680006E636C7564656420726561646D652E6D52
:101690006420666F72206D6F726520696E666F726E
:1016A0006D6174696F6E200D0A00504943313846F0
:1016B000313651343020437572696F736974792003
:1016C0004E616E6F2044656D6F200D0A0054656D8C
:1016D000702053656E736F7220526573756C742041
:1016E0002564200D0A0053573020507265737365CE
:0716F0006421200D0A000037
:1016F80020C538F521C539F522C53AF523C53BF58E
:1017080024C53CF525C53DF526C53EF527C53FF55D
:101718003FBE91EF0BF094EF0BF0010E95EF0BF03D
:10172800000E366E376A36503710D8B49EEF0BF07D
:10173800A0EF0BF0B0EF0BF03F1E3E1E3D1E3C1E0F
:101748003B1E3A1E391E386C000E39223A223B22C3
:101758003C223D223E223F22050180BFB6EF0BF01E
:10176800B8EF0BF0B9EF0BF0819380BFC6EF0BF029
:10177800805106E17F05D8B0C4EF0BF0C6EF0BF03F
:10178800CCEF0BF0000E336E010E326ED0EF0BF083
:101798007FC532F580C533F57DC534F57EC535F591
:1017A80036503710D8A4DBEF0BF0DDEF0BF0E4EF89
:1017B8000BF081A5E2EF0BF0E4EF0BF0E7EF0BF095
:1017C8003406D8A03506000E416E1F0E406E000E7E
:1017D800AF6F6BEF0CF04006D8A04106900E402486
:1017E800D96E050E4120DA6E38C501F539C502F506
:1017F8003AC503F53BC504F53CC505F53DC506F5F9
:101808003EC507F53FC508F50A0E096E000E0A6EBB
:10181800000E0B6E000E0C6E000E0D6E000E0E6E9E
:10182800000E0F6E000E106EADEC0EF001C528F51F
:1018380002C529F503C52AF504C52BF505C52CF500
:1018480006C52DF507C52EF508C52FF528C513F5CE
:101858002AC514F503EC13F01350300FDF6E32066F
:10186800D8A033063406D8A0350638C501F539C5E1
:1018780002F53AC503F53BC504F53CC505F53DC57C
:1018880006F53EC507F53FC508F50A0E096E000EB8
:101898000A6E000E0B6E000E0C6E000E0D6E000E22
:1018A8000E6E000E0F6E000E106EE9EC0DF001C505
:1018B80038F502C539F503C53AF504C53BF505C544
:1018C8003CF506C53DF507C53EF508C53FF541BEE3
:1018D80076EF0CF0415008E14004D8A076EF0CF008
:1018E80078EF0CF0A9EF0CF0385039103A103B1093
:1018F8003C103D103E103F10D8A485EF0CF087EF48
:101908000CF0EFEF0BF033BE94EF0CF0335006E120
:101918003204D8B092EF0CF094EF0CF0EFEF0BF02C
:1019280035BE9FEF0CF0355008E13404D8A09FEF86
:101938000CF0A1EF0CF0A9EF0CF0050181B3A7EFB3
:101948000CF0A9EF0CF0EFEF0BF036503710D8A4DD
:10195800B0EF0CF0B2EF0CF0BAEF0CF0050181A576
:10196800B8EF0CF0BAEF0CF0D9EF0CF04006D8A0A5
:10197800410636503710D8A4C4EF0CF0C6EF0CF06F
:10198800CCEF0CF0000E316E2B0E306ED0EF0CF059
:10199800000E316E2D0E306E900E4024D96E050E5D
:1019A8004120DA6E6100C0F4DFF41EC513F51FC5CF
:1019B80014F5900E4024156E050E4120166E34C5A0
:1019C80017F535C518F5D3EC0FF013C51EF514C57A
:1019D8001FF51200610010F5D9F4610014F5DAF46E
:1019E800DEC4F6F4DDC4F7F4F86A0800F550250AF9
:1019F800D8A401EF0DF003EF0DF0C8EF0DF0610072
:101A080010F5D9F4610014F5DAF4DE2A000EDD22AF
:101A1800000E05017E6F000E7D6F7DC581F57EC5C8
:101A280082F57F698069610010F5D9F4610014F5C9
:101A3800DAF4DEC4F6F4DDC4F7F4F86A0800F55009
:101A4800640AD8B42AEF0DF02CEF0DF041EF0DF039
:101A5800610010F5D9F4610014F5DAF4DEC4F6F487
:101A6800DDC4F7F4F86A0800F550690AD8A43FEF16
:101A78000DF041EF0DF08BEF0DF0610010F5D9F48A
:101A8800610014F5DAF4DE2A000EDD22610018F593
:101A9800D9F461001CF5DAF461007CF348F5020E14
:101AA800DE2661007CF349F5000EDD22610020F599
:101AB800D9F4610024F5DAF4610078F34AF561009D
:101AC80074F34BF5000E4BBEFF0E4C6E4D6E4E6E12
:101AD8004F6E506E516E42C51EF543C51FF54AC57F
:101AE80020F54BC521F54CC522F54DC523F54EC54E
:101AF80024F54FC525F550C526F551C527F57CECCD
:101B08000BF01EC542F51FC543F5E8EF0DF0610067
:101B180010F5D9F4610014F5DAF4DEC4F6F4DDC486
:101B2800F7F4F86A0800F550250AD8A49EEF0DF0DE
:101B3800A0EF0DF0B9EF0DF0610010F5D9F46100D8
:101B480014F5DAF4DE2A000EDD22000E046E250EEE
:101B5800036E42C505F543C506F53DEC11F0000ED0
:101B6800436E010E426EE8EF0DF0610010F5D9F4F6
:101B7800610014F5DAF4DE2A000EDD22000E436E51
:101B8800000E426EE8EF0DF0610010F5D9F4610027
:101B980014F5DAF4DEC4F6F4DDC4F7F4F86A0800E4
:101BA800F550036E046A42C505F543C506F53DECDC
:101BB80011F0610010F5D9F4610014F5DAF4DE2AA9
:101BC800000EDD22B3EF0DF01200000E126E10BEF3
:101BD800F2EF0DF0F0EF0DF004EF0EF0101E0F1EF7
:101BE8000E1E0D1E0C1E0B1E0A1E096C000E0A226C
:101BF8000B220C220D220E220F221022010E126E31
:101C080008BE0BEF0EF009EF0EF01DEF0EF0081EE8
:101C1800071E061E051E041E031E021E016C000E72
:101C28000222032204220522062207220822010E8C
:101C3800121A21EE13F1070EDE6AE806FDE20950DA
:101C48000A100B100C100D100E100F101010D8B435
:101C580030EF0EF032EF0EF084EF0EF0010E116E41
:101C680040EF0EF0D89009360A360B360C360D3692
:101C78000E360F361036112A10AE45EF0EF047EF2C
:101C88000EF036EF0EF0D890133614361536163699
:101C98001736183619361A360950015C0A50025898
:101CA8000B5003580C5004580D5005580E50065848
:101CB8000F50075810500858D8A065EF0EF067EF7E
:101CC8000EF078EF0EF00950015E0A50025A0B50E0
:101CD800035A0C50045A0D50055A0E50065A0F500C
:101CE800075A1050085A1380D89010320F320E320B
:101CF8000D320C320B320A320932112E47EF0EF038
:101D08001250D8B48AEF0EF08CEF0EF09CEF0EF064
:101D18001A1E191E181E171E161E151E141E136CC9
:101D2800000E1422152216221722182219221A220E
:101D380013C501F514C502F515C503F516C504F557
:101D480017C505F518C506F519C507F51AC508F527
:101D58001200000E126E08BEB6EF0EF0B4EF0EF0D1
:101D6800C8EF0EF0081E071E061E051E041E031EE1
:101D7800021E016C000E0222032204220522062202
:101D880007220822010E126E10BECFEF0EF0CDEF23
:101D98000EF0DFEF0EF0101E0F1E0E1E0D1E0C1E95
:101DA8000B1E0A1E096C000E0A220B220C220D22A1
:101DB8000E220F22102209500A100B100C100D10C1
:101DC8000E100F101010D8B4ECEF0EF0EEEF0EF06E
:101DD80036EF0FF0010E116EFCEF0EF0D8900936B9
:101DE8000A360B360C360D360E360F361036112ADB
:101DF80010AE01EF0FF003EF0FF0F2EF0EF0095005
:101E0800015C0A5002580B5003580C5004580D50EE
:101E180005580E5006580F50075810500858D8A0AB
:101E280018EF0FF01AEF0FF02AEF0FF00950015ECC
:101E38000A50025A0B50035A0C50045A0D50055AB6
:101E48000E50065A0F50075A1050085AD8901032A0
:101E58000F320E320D320C320B320A320932112E89
:101E680003EF0FF01250D8B43CEF0FF03EEF0FF035
:101E78004EEF0FF0081E071E061E051E041E031E49
:101E8800021E016C000E02220322042205220622F1
:101E98000722082201C501F502C502F503C503F5AD
:101EA80004C504F505C505F506C506F507C507F516
:101EB80008C508F51200000E086E06BE68EF0FF0A0
:101EC80066EF0FF070EF0FF0061E051E046C000E93
:101ED80005220622010E086E03BE77EF0FF075EF9C
:101EE8000FF07FEF0FF0031E021E016C000E02229E
:101EF8000322010E081A000E096E000E0A6E000E6B
:101F08000B6E045005100610D8B48DEF0FF08FEF4C
:101F18000FF0BEEF0FF0010E076E98EF0FF0D8909C
:101F2800043605360636072A06AE9DEF0FF09FEFFA
:101F38000FF093EF0FF0D89009360A360B3604509D
:101F4800015C0550025806500358D8A0AEEF0FF0B8
:101F5800B0EF0FF0B7EF0FF00450015E0550025AD2
:101F68000650035A0980D890063205320432072EEB
:101F78009FEF0FF00850D8B4C4EF0FF0C6EF0FF082
:101F8800CCEF0FF00B1E0A1E096C000E0A220B2262
:101F980009C501F50AC502F50BC503F512000501CF
:101FA80081A1D9EF0FF0DBEF0FF0E5EF0FF015C5CA
:101FB8000CF516C50DF513C50EF514C50FF5E1ECB6
:101FC80012F018BEEAEF0FF0ECEF0FF0F2EF0FF09F
:101FD80017C51CF518C51DF5F6EF0FF0000E1D6EA0
:101FE800000E1C6E000E1B6E000E1A6E08EF10F02D
:101FF800000E046E200E036E13C505F514C506F514
:102008003DEC11F01A4A1B2A1C501A5C1B50800A1E
:10201800196E1D50800A1958D8A015EF10F017EF47
:1020280010F0FCEF0FF0050181B11DEF10F01FEF6C
:1020380010F029EF10F015C50CF516C50DF513C5F0
:102048000EF514C50FF5E1EC12F015C501F516C52E
:1020580002F540EC13F01C500124136E1D500220B1
:10206800146E120045EC14F001C583F502C584F521
:1020780083C501F584C502F5036AB2C504F5B3C585
:1020880005F5066A05BE06066EEC12F001C578F580
:1020980002C579F503C57AF578C501F579C502F564
:1020A8007AC503F5000E046E010E056E000E066E6D
:1020B8005FEC0FF001C578F502C579F503C57AF52F
:1020C800B0C5DCF5B1C5DDF50501DE6BDDBFDE6948
:1020D8007851DC25786F7951DD21796F7A51DE21CD
:1020E8007A6F78C501F579C502F57AC503F50A0E48
:1020F800046E000E056E000E066E5FEC0FF001C553
:1021080078F502C579F503C57AF5CD0E5A6E160E27
:102118005B6E78C55CF579C55DF57AC55EF5F0EC62
:1021280013F01200AC90000E016E000E026E5AEC15
:1021380014F0AC92000E016E000E026E55EC14F015
:10214800AC94000E016E000E026E64EC14F0AC96B6
:10215800000E016E000E026E50EC14F0000E02012B
:10216800A16F000EA26F000EA36F000EA46F000EE9
:10217800A56F000EA66F000EA76F000EA86F000EC9
:10218800A96F000EAA6F300EAB6F800EAC6F000EF9
:10219800AD6F9F0EAE6F010EAF6F000EB06F000EE9
:1021A800B16F000EB26F000EB36F000E016E000E1D
:1021B800026E69EC14F0000E016E000E026E5FEC08
:1021C80014F0000E016E000E026E6EEC14F0000E9C
:1021D8000501876F1200000EBE6E000EBF6E000E66
:1021E800C06E0F0EC66E700EC76EFD0EC86E100E56
:1021F8000401006F800E086F020E106F000E016F51
:10220800000E096F030E116F000E026F000E0A6FA9
:10221800000E126F370E036FF00E0B6F13693F0E2F
:10222800046FF00E0C6F1469020E0201616F0D0E3F
:10223800726F100E486F150E576F130E586F100EF1
:10224800106F0A0E056F0B0E066F000E0401056F66
:10225800000E066F000E076F000E0D6F000E0E6F5A
:10226800000E0F6F000E156F000E166F000E176F21
:10227800120005500610D8B444EF11F046EF11F0E3
:102288004FEF11F005500610D8A44DEF11F04FEFA5
:1022980011F054EF11F00350A5EC14F087EF11F092
:1022A80020EE04F00550D9260650DA22DE50DE1062
:1022B800D8B461EF11F063EF11F07EEF11F020EE6A
:1022C80004F00550D9260650DA2210EE02F0055027
:1022D800E1260650E222DE50E65CE650800A0B6EEC
:1022E800DE50800A0B58D8B07CEF11F07EEF11F069
:1022F80087EF11F020EE02F00550D9260650DA22B9
:10230800DE2A000EDD221200C3EC13F0D68E3C0E3E
:102318000301EC6F04EC14F023EC13F005018E05B7
:10232800D8A499EF11F09BEF11F0B6EF11F0000E61
:102338008E6FC0B2A2EF11F0A5EF11F0010EA6EF5B
:1023480011F0000EFF0A5F6E5F46C0505F18FD0B6C
:102358005F18C06EE60E5A6E160E5B6EF0EC13F048
:1023680092EF11F08F05D8A4BCEF11F0BEEF11F079
:1023780092EF11F0000E8F6F36EC10F092EF11F023
:102388000DEF00F0000E0301D96F000EDA6F000E9A
:10239800DB6F000EDC6F000EDF6F000EE06F000ECB
:1023A800E56F000EE76F000EEC6F0F0EEE6F000E7C
:1023B800EF6F000EF06F000EF16F000EF26F000E5F
:1023C800F46F100EF56F000EF66F000EF76F030E28
:1023D800F86F030EF96F030EFA6F940EF36FB4944F
:1023E800660E016E290E026EA0EC14F0A984B59059
:1023F800000E016E000E026E9BEC14F01200000E2F
:10240800606E020E616E000E626E000E636E000E4C
:10241800646E000E656E000E666E000E676E000E2E
:10242800686E800E6A6E000E6B6E000E6C6E000E8B
:102438006D6E000E6E6EB79CB79E67906792AC9EED
:10244800AC9C000E016E000E026E82EC14F0000EC1
:10245800016E000E026E7DEC14F0000E016E000E8F
:10246800026E87EC14F0800E696E120054C558F5A0
:1024780055C559F5000E05017C6F000E7B6F58EFAE
:1024880012F052C542F553C543F5580E446E050E79
:10249800456E56C546F557C547F5EEEC0CF042506B
:1024A80005017B2743507C23610060F5F6F4610049
:1024B80064F5F7F4F86A0800F5500009D8A467EF46
:1024C80012F069EF12F045EF12F07BC552F57CC5AA
:1024D80053F51200000E076E000E086E000E096E0E
:1024E80001A079EF12F07BEF12F081EF12F00450A7
:1024F80007260550082206500922D89004360536CA
:102508000636D8900332023201320150021003100D
:10251800D8A491EF12F093EF12F074EF12F007C500
:1025280001F508C502F509C503F51200000E0301FF
:10253800156F000E166F040E176FC30E136F740E0F
:10254800126F125160004CFC03F5046A03C504F5D0
:10255800036A03100501BE6F0450BF6F000E016EC1
:10256800000E026E78EC14F0B698B69A050E0301C8
:10257800146F1200A9A4C3EF12F0C5EF12F0D0EF48
:1025880012F0B4A4CAEF12F0CCEF12F0D0EF12F0B0
:10259800ABEC13F0E0EF12F0A8AAD5EF12F0D7EFEA
:1025A80012F0E0EF12F0B3AADCEF12F0DEEF12F057
:1025B800E0EF12F0AAEC14F01100000E126E000EFB
:1025C800116EF2EF12F010C503F5046A0EC505F599
:1025D8000FC506F53DEC11F0114A122A11500C24D2
:1025E800D96E12500D20DA6EDF50106E1050D8A43C
:1025F80000EF13F002EF13F0E7EF12F0120014BE31
:1026080010EF13F0145006E11304D8B00EEF13F0D6
:1026180010EF13F01EEF13F013C515F514C516F5DA
:10262800151E161E154A162A15C513F516C514F5D6
:1026380022EF13F013C513F514C514F512002A0E72
:10264800016E000E026E2C0E036E000E046E93ECEB
:1026580013F001C5B2F502C5B3F52E0E016E000EDA
:10266800026E2C0E036E000E046E93EC13F001C57F
:10267800B0F502C5B1F5120001C503F502C504F5B0
:1026880048EF13F0014A022A610004F4D9F461000A
:1026980008F4DAF4DF50D8A454EF13F056EF13F02F
:1026A80046EF13F00350015C016E04500258026EAD
:1026B8001200000E0001D56F0A0ED76F100ED86FEA
:1026C800000ED96F000EDA6F000EDB6F020EDC6FA2
:1026D800000EDD6F000EDE6F000EDF6F000ED46F90
:1026E8009E0ED66FB39AA88A1200D69AB490D68056
:1026F800000E016E000E026E96EC14F0B990D682B0
:10270800000E016E000E026E91EC14F0BD90D6849E
:10271800000E016E000E026E8CEC14F012006100C7
:102728000CF4F8F4610008F4F7F4610004F4F6F42A
:1027380009006100D4F307F508006100D4F308F537
:102748000850056E0750016E05C502F51200B494D5
:102758000501D651D711D8B4B4EF13F0B6EF13F082
:10276800C2EF13F002D8C2EF13F00500FA6ED6518B
:10277800FD6ED751FE6EFF6AFA501200120017EC78
:1027880014F0DAEC13F079EC13F09AEC12F003EC95
:1027980012F0C6EC11F096EC10F05DEC13F0AFEC13
:1027A80014F0B7EC14F0EFEC10F01200040E030173
:1027B800206F120E1F6F000E216FE80E1D6F000EA6
:1027C8001C6F000E016E000E026E73EC14F0B696CC
:1027D800C00E03011E6F12005C0E0501DA6F050EB4
:1027E800DB6F000E526E000E536E5AC554F55BC572
:1027F80055F5DA0E566E050E576E3AEC12F01200C9
:10280800AA0E5A6E160E5B6EF0EC13F06F0E5A6E2F
:10281800160E5B6EF0EC13F0330E5A6E160E5B6EEE
:10282800F0EC13F01200600E0001AD6F700EAE6F89
:10283800000EAF6F000EB36F080EB16F000EB26FCF
:10284800000EB06F000EAC6F120001EE60F1500E7A
:10285800EE6AE806FDE10401080E5D6F000E5E6F8A
:10286800000E5F6F000188EF11F0016EB7A23FEF15
:1028780014F041EF14F03AEF14F0610004F4A3F2FD
:1028880012000301EB51046E036AEA510324016E3E
:10289800000E0420026E120001C5C6F502C5C7F578
:1028A800120001C5CAF502C5CBF5120001C5CCF569
:1028B80002C5CDF5120001C5B6F502C5B7F512007F
:1028C80001C5C8F502C5C9F5120001C5B8F502C5AC
:1028D800B9F5120001C5B4F502C5B5F5120001C578
:1028E800BAF502C5BBF5120001C5BCF502C5BDF5B8
:1028F800120001C5D0F502C5D1F5120001C5D2F507
:1029080002C5D3F5120001C5CEF502C5CFF51200F8
:1029180001C5C0F502C5C1F5120001C5C2F502C561
:10292800C3F5120001C5C4F502C5C5F5120001C5FD
:10293800D4F502C5D5F5120001C5D6F502C5D7F5FF
:102948001200026E025039EC14F01200B39A010E14
:1029580005018E6F1200F20E0301D76F1200010EEF
:0829680005018F6F120012003F
:020000040020DA
:10000000FF0FFF0FFF0FFF0FFF0FFF0FFF0FFF0F80
:10001000FF0FFF0FFF0FFF0FFF0FFF0FFF0FFF0F70
:020000040030CA
:0A0000008CFFF7FF9FFFFFFFFFFFDB
:00000001FF
