:020000040000FA
:040000000DEF00F010
:0400080043EF12F0C0
:06001800FF0089EF13F068
:10160000002D2D2D2D2D2D2D2D2D2D2D2D2D2D2D37
:101610002D2D2D2D2D2D2D2D2D2D2D2D2D2D2D2DFA
:101620002D2D2D2D2D2D2D2D2D2D2D2D2D2D2D2DEA
:101630002D2D2D2D2D2D2D2D2D200D0A00506C65BD
:1016400061736520726566657220746F20696E63D0
:101650006C7564656420726561646D652E6D6420CF
:10166000666F72206D6F726520696E666F726D6154
:1016700074696F6E200D0A00504943313846313687
:1016800051343020437572696F73697479204E61EB
:101690006E6F2044656D6F200D0A0054656D7020DB
:1016A00053656E736F7220526573756C7420256478
:1016B000200D0A0053573020507265737365642102
:0516C000200D0A0000EE
:1016C60020C538F521C539F522C53AF523C53BF5C0
:1016D60024C53CF525C53DF526C53EF527C53FF590
:1016E6003FBE78EF0BF07BEF0BF0010E7CEF0BF0BB
:1016F600000E366E376A36503710D8B485EF0BF0C9
:1017060087EF0BF097EF0BF03F1E3E1E3D1E3C1E73
:101716003B1E3A1E391E386C000E39223A223B22F5
:101726003C223D223E223F22050168BF9DEF0BF081
:101736009FEF0BF0A0EF0BF0699368BFADEF0BF0D6
:10174600685106E16705D8B0ABEF0BF0ADEF0BF0D3
:10175600B3EF0BF0000E336E010E326EB7EF0BF0E7
:1017660067C532F568C533F565C534F566C535F523
:1017760036503710D8A4C2EF0BF0C4EF0BF0CBEF06
:101786000BF069A5C9EF0BF0CBEF0BF0CEEF0BF02A
:101796003406D8A03506000E416E1F0E406E000EB0
:1017A6008F6F52EF0CF04006D8A04106700E402411
:1017B600D96E050E4120DA6E38C501F539C502F538
:1017C6003AC503F53BC504F53CC505F53DC506F52B
:1017D6003EC507F53FC508F50A0E096E000E0A6EEE
:1017E600000E0B6E000E0C6E000E0D6E000E0E6ED1
:1017F600000E0F6E000E106E94EC0EF001C528F56B
:1018060002C529F503C52AF504C52BF505C52CF532
:1018160006C52DF507C52EF508C52FF528C513F500
:101826002AC514F588EC12F01350300FDF6E32061D
:10183600D8A033063406D8A0350638C501F539C513
:1018460002F53AC503F53BC504F53CC505F53DC5AE
:1018560006F53EC507F53FC508F50A0E096E000EEA
:101866000A6E000E0B6E000E0C6E000E0D6E000E54
:101876000E6E000E0F6E000E106ED0EC0DF001C550
:1018860038F502C539F503C53AF504C53BF505C576
:101896003CF506C53DF507C53EF508C53FF541BE15
:1018A6005DEF0CF0415008E14004D8A05DEF0CF06C
:1018B6005FEF0CF090EF0CF0385039103A103B10F7
:1018C6003C103D103E103F10D8A46CEF0CF06EEFAC
:1018D6000CF0D6EF0BF033BE7BEF0CF0335006E185
:1018E6003204D8B079EF0CF07BEF0CF0D6EF0BF0AA
:1018F60035BE86EF0CF0355008E13404D8A086EFEB
:101906000CF088EF0CF090EF0CF0050169B38EEF48
:101916000CF090EF0CF0D6EF0BF036503710D8A441
:1019260097EF0CF099EF0CF0A1EF0CF0050169A50B
:101936009FEF0CF0A1EF0CF0C0EF0CF04006D8A022
:10194600410636503710D8A4ABEF0CF0ADEF0CF0D3
:10195600B3EF0CF0000E316E2B0E306EB7EF0CF0BD
:10196600000E316E2D0E306E700E4024D96E050EAF
:101976004120DA6E6100C0F4DFF41EC513F51FC501
:1019860014F5700E4024156E050E4120166E34C5F2
:1019960017F535C518F5BAEC0FF013C51EF514C5C5
:1019A6001FF51200610010F5D9F4610014F5DAF4A0
:1019B600DEC4F6F4DDC4F7F4F86A0800F550250A2B
:1019C600D8A4E8EF0CF0EAEF0CF0AFEF0DF06100F1
:1019D60010F5D9F4610014F5DAF4DE2A000EDD22E2
:1019E600000E0501666F000E656F65C569F566C573
:1019F6006AF567696869610010F5D9F4610014F544
:101A0600DAF4DEC4F6F4DDC4F7F4F86A0800F5503B
:101A1600640AD8B411EF0DF013EF0DF028EF0DF0B6
:101A2600610010F5D9F4610014F5DAF4DEC4F6F4B9
:101A3600DDC4F7F4F86A0800F550690AD8A426EF61
:101A46000DF028EF0DF072EF0DF0610010F5D9F4EE
:101A5600610014F5DAF4DE2A000EDD22610018F5C5
:101A6600D9F461001CF5DAF461007CF348F5020E46
:101A7600DE2661007CF349F5000EDD22610020F5CB
:101A8600D9F4610024F5DAF4610078F34AF56100CF
:101A960074F34BF5000E4BBEFF0E4C6E4D6E4E6E44
:101AA6004F6E506E516E42C51EF543C51FF54AC5B1
:101AB60020F54BC521F54CC522F54DC523F54EC580
:101AC60024F54FC525F550C526F551C527F563EC18
:101AD6000BF01EC542F51FC543F5CFEF0DF06100B3
:101AE60010F5D9F4610014F5DAF4DEC4F6F4DDC4B9
:101AF600F7F4F86A0800F550250AD8A485EF0DF02A
:101B060087EF0DF0A0EF0DF0610010F5D9F461003C
:101B160014F5DAF4DE2A000EDD22000E046E250E20
:101B2600036E42C505F543C506F57DEC10F0000EC3
:101B3600436E010E426ECFEF0DF0610010F5D9F441
:101B4600610014F5DAF4DE2A000EDD22000E436E83
:101B5600000E426ECFEF0DF0610010F5D9F4610072
:101B660014F5DAF4DEC4F6F4DDC4F7F4F86A080016
:101B7600F550036E046A42C505F543C506F57DECCE
:101B860010F0610010F5D9F4610014F5DAF4DE2ADC
:101B9600000EDD229AEF0DF01200000E126E10BE3E
:101BA600D9EF0DF0D7EF0DF0EBEF0DF0101E0F1E75
:101BB6000E1E0D1E0C1E0B1E0A1E096C000E0A229E
:101BC6000B220C220D220E220F221022010E126E63
:101BD60008BEF2EF0DF0F0EF0DF004EF0EF0081E68
:101BE600071E061E051E041E031E021E016C000EA5
:101BF6000222032204220522062207220822010EBF
:101C0600121A21EE13F1070EDE6AE806FDE209500C
:101C16000A100B100C100D100E100F101010D8B467
:101C260017EF0EF019EF0EF06BEF0EF0010E116EBE
:101C360027EF0EF0D89009360A360B360C360D36DD
:101C46000E360F361036112A10AE2CEF0EF02EEF90
:101C56000EF01DEF0EF0D8901336143615361636E4
:101C66001736183619361A360950015C0A500258CA
:101C76000B5003580C5004580D5005580E5006587A
:101C86000F50075810500858D8A04CEF0EF04EEFE2
:101C96000EF05FEF0EF00950015E0A50025A0B502B
:101CA600035A0C50045A0D50055A0E50065A0F503E
:101CB600075A1050085A1380D89010320F320E323D
:101CC6000D320C320B320A320932112E2EEF0EF083
:101CD6001250D8B471EF0EF073EF0EF083EF0EF0E2
:101CE6001A1E191E181E171E161E151E141E136CFC
:101CF600000E1422152216221722182219221A2241
:101D060013C501F514C502F515C503F516C504F589
:101D160017C505F518C506F519C507F51AC508F559
:101D26001200000E126E08BE9DEF0EF09BEF0EF035
:101D3600AFEF0EF0081E071E061E051E041E031E2C
:101D4600021E016C000E0222032204220522062234
:101D560007220822010E126E10BEB6EF0EF0B4EF87
:101D66000EF0C6EF0EF0101E0F1E0E1E0D1E0C1EE0
:101D76000B1E0A1E096C000E0A220B220C220D22D3
:101D86000E220F22102209500A100B100C100D10F3
:101D96000E100F101010D8B4D3EF0EF0D5EF0EF0D2
:101DA6001DEF0FF0010E116EE3EF0EF0D89009361D
:101DB6000A360B360C360D360E360F361036112A0D
:101DC60010AEE8EF0EF0EAEF0EF0D9EF0EF0095084
:101DD600015C0A5002580B5003580C5004580D5021
:101DE60005580E5006580F50075810500858D8A0DE
:101DF600FFEF0EF001EF0FF011EF0FF00950015E4B
:101E06000A50025A0B50035A0C50045A0D50055AE8
:101E16000E50065A0F50075A1050085AD8901032D2
:101E26000F320E320D320C320B320A320932112EBB
:101E3600EAEF0EF01250D8B423EF0FF025EF0FF0B3
:101E460035EF0FF0081E071E061E051E041E031E94
:101E5600021E016C000E0222032204220522062223
:101E66000722082201C501F502C502F503C503F5DF
:101E760004C504F505C505F506C506F507C507F548
:101E860008C508F51200000E086E06BE4FEF0FF0EB
:101E96004DEF0FF057EF0FF0061E051E046C000EF7
:101EA60005220622010E086E03BE5EEF0FF05CEF00
:101EB6000FF066EF0FF0031E021E016C000E0222E9
:101EC6000322010E081A000E096E000E0A6E000E9D
:101ED6000B6E045005100610D8B474EF0FF076EFB1
:101EE6000FF0A5EF0FF0010E076E7FEF0FF0D89001
:101EF600043605360636072A06AE84EF0FF086EF5F
:101F06000FF07AEF0FF0D89009360A360B360450E8
:101F1600015C0550025806500358D8A095EF0FF003
:101F260097EF0FF09EEF0FF00450015E0550025A36
:101F36000650035A0980D890063205320432072E1D
:101F460086EF0FF00850D8B4ABEF0FF0ADEF0FF0FF
:101F5600B3EF0FF00B1E0A1E096C000E0A220B22AD
:101F660009C501F50AC502F50BC503F51200050101
:101F760069A1C0EF0FF0C2EF0FF0CCEF0FF015C55F
:101F86000CF516C50DF513C50EF514C50FF566EC63
:101F960012F018BED1EF0FF0D3EF0FF0D9EF0FF01C
:101FA60017C51CF518C51DF5DDEF0FF0000E1D6EEB
:101FB600000E1C6E000E1B6E000E1A6EEFEF0FF079
:101FC600000E046E200E036E13C505F514C506F546
:101FD6007DEC10F01A4A1B2A1C501A5C1B50800A12
:101FE600196E1D50800A1958D8A0FCEF0FF0FEEFAD
:101FF6000FF0E3EF0FF0050169B104EF10F006EF03
:1020060010F010EF10F015C50CF516C50DF513C53B
:102016000EF514C50FF566EC12F015C501F516C5DB
:1020260002F5E2EC12F01C500124136E1D50022042
:10203600146E1200D0EC13F001C56BF502C56CF5F9
:102046006BC501F56CC502F5036A92C504F593C527
:1020560005F5066A05BE060617EC12F001C560F521
:1020660002C561F503C562F560C501F561C502F5F6
:1020760062C503F5000E046E010E056E000E066EB7
:1020860046EC0FF001C560F502C561F503C562F5C2
:1020960090C5A8F591C5A9F50501AA6BA9BFAA69BE
:1020A6006051A825606F6151A921616F6251AA2113
:1020B600626F60C501F561C502F562C503F50A0EDA
:1020C600046E000E056E000E066E46EC0FF001C59E
:1020D60060F502C561F503C562F59B0E5A6E160ED4
:1020E6005B6E60C55CF561C55DF562C55EF562EC6B
:1020F60013F0120005500610D8B484EF10F086EFE6
:1021060010F08FEF10F005500610D8A48DEF10F0E8
:102116008FEF10F094EF10F00350FEEC13F0C7EFC2
:1021260010F020EE04F00550D9260650DA22DE50D3
:10213600DE10D8B4A1EF10F0A3EF10F0BEEF10F050
:1021460020EE04F00550D9260650DA2210EE02F0F1
:102156000550E1260650E222DE50E65CE650800A93
:102166000B6EDE50800A0B58D8B0BCEF10F0BEEFF5
:1021760010F0C7EF10F020EE02F00550D9260650F9
:10218600DA22DE2A000EDD2212004BEC13F0D68E88
:102196003C0E0301EC6F76EC13F0A8EC12F005018F
:1021A6006D05D8A4D9EF10F0DBEF10F0F6EF10F0C4
:1021B600000E6D6FC0B2E2EF10F0E5EF10F0010E09
:1021C600E6EF10F0000EFF0A5F6E5F46C0505F1824
:1021D600FD0B5F18C06EB40E5A6E160E5B6E62EC87
:1021E60013F0D2EF10F06E05D8A4FCEF10F0FEEF5E
:1021F60010F0D2EF10F0000E6E6F1DEC10F0D2EF63
:1022060010F00DEF00F0000EBE6E000EBF6E000E59
:10221600C06E0F0EC66E700EC76EFD0EC86ED60E61
:102226000401106FD00E086F330E006F000E096F99
:10223600000E016F030E116F000E026F000E0A6F83
:10224600000E126F370E036FF00E0B6F13693F0E01
:10225600046FF00E0C6F1469130E0201586F150E01
:10226600576F0A0E056F020E616F100E106F100E7B
:10227600486F0B0E066F0D0E726F1200000E606E29
:10228600020E616E000E626E7F0E636E020E646E4B
:10229600000E656E000E666E000E676E000E686EAE
:1022A600800E6A6EA00E6B6E000E6C6EA00E6D6ECA
:1022B600000E6E6EB79CB79E67906792AC9EAC9C04
:1022C600000E016E000E026EEFEC13F0000E016EB2
:1022D600000E026EEAEC13F0000E016E000E026EA6
:1022E600F4EC13F0800E696E1200000E0301D96F34
:1022F600000EDA6F000EDB6F000EDC6F000EDF6F74
:10230600000EE06F000EE56F000EE76F000EEC6F3B
:102316000F0EEE6F000EEF6F000EF06F000EF16FF6
:10232600000EF26F000EF46F100EF56F000EF66FD2
:10233600000EF76F030EF86F030EF96F030EFA6FB8
:10234600940EF36FB494A984180E016E280E026ED3
:10235600F9EC13F01200000E0201A56F000EA66F35
:10236600000EA76F000EA86F000EA96F000EAA6FD1
:10237600B00EAB6F800EAC6F000EAD6F820EAE6FFF
:10238600060EAF6F000EB06F000EB16F000EB26F8B
:10239600000EB36F000E016E000E026EE0EC13F03D
:1023A600000E016E000E026EDBEC13F0000E016EE5
:1023B600000E026EE5EC13F0000E05016F6F1200C1
:1023C60054C558F555C559F5000E0501646F000E44
:1023D600636F01EF12F052C542F553C543F5580E2F
:1023E600446E050E456E56C546F557C547F5D5EC00
:1023F6000CF042500501632743506423610060F5E9
:10240600F6F4610064F5F7F4F86A0800F55000097F
:10241600D8A410EF12F012EF12F0EEEF11F063C530
:1024260052F564C553F51200000E076E000E086ED5
:10243600000E096E01A022EF12F024EF12F02AEF2F
:1024460012F0045007260550082206500922D8909B
:10245600043605360636D890033202320132015070
:1024660002100310D8A43AEF12F03CEF12F01DEF61
:1024760012F007C501F508C502F509C503F51200F6
:10248600A8AA48EF12F04AEF12F055EF12F0B3AADD
:102496004FEF12F051EF12F055EF12F003EC14F07B
:1024A60065EF12F0A9A45AEF12F05CEF12F065EF97
:1024B60012F0B4A461EF12F063EF12F065EF12F0C0
:1024C60033EC13F01100000E126E000E116E77EF52
:1024D60012F010C503F5046A0EC505F50FC506F51D
:1024E6007DEC10F0114A122A11500C24D96E1250AC
:1024F6000D20DA6EDF50106E1050D8A485EF12F062
:1025060087EF12F06CEF12F0120014BE95EF12F086
:10251600145006E11304D8B093EF12F095EF12F0C1
:10252600A3EF12F013C515F514C516F5151E161EE4
:10253600154A162A15C513F516C514F5A7EF12F098
:1025460013C513F514C514F512002A0E016E000EFC
:10255600026E2C0E036E000E046E1BEC13F001C50A
:1025660092F502C593F52E0E016E000E026E2C0E2C
:10257600036E000E046E1BEC13F001C590F502C548
:1025860091F51200000E0301156F000E166F040E72
:10259600176FC30E136F740E126FB6981251600048
:1025A6004CFC01F5026A01C502F5016A011005013C
:1025B600946F0250956F050E0301146F120001C54A
:1025C60003F502C504F5EAEF12F0014A022A61009A
:1025D60004F4D9F4610008F4DAF4DF50D8A4F6EF75
:1025E60012F0F8EF12F0E8EF12F00350015C016E02
:1025F60004500258026E1200000E0001D56F0A0E3A
:10260600D76F100ED86F000ED96F000EDA6F000E5E
:10261600DB6F020EDC6F000EDD6F000EDE6F000E4C
:10262600DF6F000ED46F9E0ED66FB39AA88A120083
:1026360061000CF4F8F4610008F4F7F4610004F4A6
:10264600F6F409006100D4F307F508006100D4F33D
:1026560008F50850056E0750016E05C502F5120013
:10266600B494050196519711D8B43CEF13F03EEFA0
:1026760013F04AEF13F002D84AEF13F00500FA6E92
:102686009651FD6E9751FE6EFF6AFA5012001200C7
:1026960010EC14F0A8EC13F006EC11F0B6EC13F005
:1026A60008EC14F0FFEC12F078EC11F099EC13F052
:1026B600C5EC12F0AEEC11F041EC11F012005C0E1C
:1026C6000501A66F050EA76F000E526E000E536E23
:1026D6005AC554F55BC555F5A60E566E050E576ED2
:1026E600E3EC11F01200780E5A6E160E5B6E62EC79
:1026F60013F03D0E5A6E160E5B6E62EC13F0010E71
:102706005A6E160E5B6E62EC13F0120001EE60F16B
:10271600300EEE6AE806FDE10401080E5D6F000E5C
:102726005E6F000E5F6F0001C8EF10F0040E03012C
:10273600206F120E1F6F000E216FE80E1D6F000E28
:102746001C6FB696C00E1E6F1200000E0001636F5E
:10275600000E646F000E656F000E666F000E676FE9
:10276600000E686F1200600E0001AD6F000EAF6FB5
:10277600000EB36F080EB16F000EB06F000EAC6F97
:102786001200016EB7A2CAEF13F0CCEF13F0C5EF3B
:1027960013F0610004F4A3F212000301EB51046E7E
:1027A600036AEA510324016E000E0420026E120031
:1027B60001C5A0F502C5A1F5120001C5A2F502C525
:1027C600A3F5120001C59EF502C59FF5120001C5CD
:1027D6009AF502C59BF5120001C59CF502C59DF54B
:1027E600120001C598F502C599F5120001C596F5C6
:1027F60002C597F51200026E0250C4EC13F01200E7
:10280600B39A010E05016D6F1200B20E0301D76F68
:0E2816001200010E05016E6F1200D69A12001C
:020000040020DA
:10000000FF0FFF0FFF0FFF0FFF0FFF0FFF0FFF0F80
:10001000FF0FFF0FFF0FFF0FFF0FFF0FFF0FFF0F70
:020000040030CA
:0A0000008CFFF7FF9FFFFFFFFFFFDB
:00000001FF
